{
	"Zeph.sol": {
		"SimpleFlightCompensation": {
			"abi": [
				{
					"inputs": [],
					"stateMutability": "nonpayable",
					"type": "constructor"
				},
				{
					"anonymous": false,
					"inputs": [
						{
							"indexed": false,
							"internalType": "string",
							"name": "flightId",
							"type": "string"
						},
						{
							"indexed": true,
							"internalType": "address",
							"name": "traveler",
							"type": "address"
						},
						{
							"indexed": false,
							"internalType": "uint256",
							"name": "amount",
							"type": "uint256"
						}
					],
					"name": "CompensationPaid",
					"type": "event"
				},
				{
					"anonymous": false,
					"inputs": [
						{
							"indexed": false,
							"internalType": "string",
							"name": "flightId",
							"type": "string"
						},
						{
							"indexed": true,
							"internalType": "address",
							"name": "traveler",
							"type": "address"
						},
						{
							"indexed": false,
							"internalType": "uint256",
							"name": "escrowAmount",
							"type": "uint256"
						}
					],
					"name": "FlightRegistered",
					"type": "event"
				},
				{
					"anonymous": false,
					"inputs": [
						{
							"indexed": false,
							"internalType": "string",
							"name": "flightId",
							"type": "string"
						},
						{
							"indexed": false,
							"internalType": "bool",
							"name": "delayed",
							"type": "bool"
						}
					],
					"name": "FlightStatusUpdated",
					"type": "event"
				},
				{
					"inputs": [],
					"name": "admin",
					"outputs": [
						{
							"internalType": "address",
							"name": "",
							"type": "address"
						}
					],
					"stateMutability": "view",
					"type": "function"
				},
				{
					"inputs": [
						{
							"internalType": "bytes32",
							"name": "",
							"type": "bytes32"
						},
						{
							"internalType": "address",
							"name": "",
							"type": "address"
						}
					],
					"name": "claims",
					"outputs": [
						{
							"internalType": "uint256",
							"name": "escrowAmount",
							"type": "uint256"
						},
						{
							"internalType": "bool",
							"name": "registered",
							"type": "bool"
						},
						{
							"internalType": "bool",
							"name": "compensated",
							"type": "bool"
						}
					],
					"stateMutability": "view",
					"type": "function"
				},
				{
					"inputs": [
						{
							"internalType": "bytes32",
							"name": "",
							"type": "bytes32"
						}
					],
					"name": "flightDelayed",
					"outputs": [
						{
							"internalType": "bool",
							"name": "",
							"type": "bool"
						}
					],
					"stateMutability": "view",
					"type": "function"
				},
				{
					"inputs": [
						{
							"internalType": "string",
							"name": "flightId",
							"type": "string"
						}
					],
					"name": "registerFlight",
					"outputs": [],
					"stateMutability": "payable",
					"type": "function"
				},
				{
					"inputs": [
						{
							"internalType": "string",
							"name": "flightId",
							"type": "string"
						}
					],
					"name": "requestCompensation",
					"outputs": [],
					"stateMutability": "nonpayable",
					"type": "function"
				},
				{
					"inputs": [
						{
							"internalType": "string",
							"name": "flightId",
							"type": "string"
						},
						{
							"internalType": "bool",
							"name": "delayed",
							"type": "bool"
						}
					],
					"name": "setFlightDelayed",
					"outputs": [],
					"stateMutability": "nonpayable",
					"type": "function"
				},
				{
					"stateMutability": "payable",
					"type": "receive"
				}
			],
			"devdoc": {
				"kind": "dev",
				"methods": {},
				"title": "SimpleFlightCompensation (MVP)",
				"version": 1
			},
			"evm": {
				"assembly": "    /* \"Zeph.sol\":229:3079  contract SimpleFlightCompensation {... */\n  mstore(0x40, 0x80)\n    /* \"Zeph.sol\":1136:1187  constructor() {... */\n  callvalue\n  dup1\n  iszero\n  tag_1\n  jumpi\n  0x00\n  dup1\n  revert\ntag_1:\n  pop\n    /* \"Zeph.sol\":1169:1179  msg.sender */\n  caller\n    /* \"Zeph.sol\":1161:1166  admin */\n  0x00\n  dup1\n    /* \"Zeph.sol\":1161:1179  admin = msg.sender */\n  0x0100\n  exp\n  dup2\n  sload\n  dup2\n  0xffffffffffffffffffffffffffffffffffffffff\n  mul\n  not\n  and\n  swap1\n  dup4\n  0xffffffffffffffffffffffffffffffffffffffff\n  and\n  mul\n  or\n  swap1\n  sstore\n  pop\n    /* \"Zeph.sol\":229:3079  contract SimpleFlightCompensation {... */\n  dataSize(sub_0)\n  dup1\n  dataOffset(sub_0)\n  0x00\n  codecopy\n  0x00\n  return\nstop\n\nsub_0: assembly {\n        /* \"Zeph.sol\":229:3079  contract SimpleFlightCompensation {... */\n      mstore(0x40, 0x80)\n      jumpi(tag_1, lt(calldatasize, 0x04))\n      shr(0xe0, calldataload(0x00))\n      dup1\n      0x3f8dd545\n      eq\n      tag_3\n      jumpi\n      dup1\n      0x90e0378f\n      eq\n      tag_4\n      jumpi\n      dup1\n      0x92256c0e\n      eq\n      tag_5\n      jumpi\n      dup1\n      0xc5ece182\n      eq\n      tag_6\n      jumpi\n      dup1\n      0xee488213\n      eq\n      tag_7\n      jumpi\n      dup1\n      0xf851a440\n      eq\n      tag_8\n      jumpi\n      jump(tag_2)\n    tag_1:\n      jumpi(tag_2, calldatasize)\n      stop\n    tag_2:\n      0x00\n      dup1\n      revert\n        /* \"Zeph.sol\":1282:1751  function registerFlight(string calldata flightId) external payable {... */\n    tag_3:\n      tag_11\n      0x04\n      dup1\n      calldatasize\n      sub\n      dup2\n      add\n      swap1\n      tag_12\n      swap2\n      swap1\n      tag_13\n      jump\t// in\n    tag_12:\n      tag_14\n      jump\t// in\n    tag_11:\n      stop\n        /* \"Zeph.sol\":2182:2957  function requestCompensation(string calldata flightId) external {... */\n    tag_4:\n      callvalue\n      dup1\n      iszero\n      tag_15\n      jumpi\n      0x00\n      dup1\n      revert\n    tag_15:\n      pop\n      tag_16\n      0x04\n      dup1\n      calldatasize\n      sub\n      dup2\n      add\n      swap1\n      tag_17\n      swap2\n      swap1\n      tag_13\n      jump\t// in\n    tag_17:\n      tag_18\n      jump\t// in\n    tag_16:\n      stop\n        /* \"Zeph.sol\":621:686  mapping(bytes32 => mapping(address => ClaimRecord)) public claims */\n    tag_5:\n      callvalue\n      dup1\n      iszero\n      tag_19\n      jumpi\n      0x00\n      dup1\n      revert\n    tag_19:\n      pop\n      tag_20\n      0x04\n      dup1\n      calldatasize\n      sub\n      dup2\n      add\n      swap1\n      tag_21\n      swap2\n      swap1\n      tag_22\n      jump\t// in\n    tag_21:\n      tag_23\n      jump\t// in\n    tag_20:\n      mload(0x40)\n      tag_24\n      swap4\n      swap3\n      swap2\n      swap1\n      tag_25\n      jump\t// in\n    tag_24:\n      mload(0x40)\n      dup1\n      swap2\n      sub\n      swap1\n      return\n        /* \"Zeph.sol\":733:778  mapping(bytes32 => bool) public flightDelayed */\n    tag_6:\n      callvalue\n      dup1\n      iszero\n      tag_26\n      jumpi\n      0x00\n      dup1\n      revert\n    tag_26:\n      pop\n      tag_27\n      0x04\n      dup1\n      calldatasize\n      sub\n      dup2\n      add\n      swap1\n      tag_28\n      swap2\n      swap1\n      tag_29\n      jump\t// in\n    tag_28:\n      tag_30\n      jump\t// in\n    tag_27:\n      mload(0x40)\n      tag_31\n      swap2\n      swap1\n      tag_32\n      jump\t// in\n    tag_31:\n      mload(0x40)\n      dup1\n      swap2\n      sub\n      swap1\n      return\n        /* \"Zeph.sol\":1852:2094  function setFlightDelayed(string calldata flightId, bool delayed) external onlyAdmin {... */\n    tag_7:\n      callvalue\n      dup1\n      iszero\n      tag_33\n      jumpi\n      0x00\n      dup1\n      revert\n    tag_33:\n      pop\n      tag_34\n      0x04\n      dup1\n      calldatasize\n      sub\n      dup2\n      add\n      swap1\n      tag_35\n      swap2\n      swap1\n      tag_36\n      jump\t// in\n    tag_35:\n      tag_37\n      jump\t// in\n    tag_34:\n      stop\n        /* \"Zeph.sol\":270:290  address public admin */\n    tag_8:\n      callvalue\n      dup1\n      iszero\n      tag_38\n      jumpi\n      0x00\n      dup1\n      revert\n    tag_38:\n      pop\n      tag_39\n      tag_40\n      jump\t// in\n    tag_39:\n      mload(0x40)\n      tag_41\n      swap2\n      swap1\n      tag_42\n      jump\t// in\n    tag_41:\n      mload(0x40)\n      dup1\n      swap2\n      sub\n      swap1\n      return\n        /* \"Zeph.sol\":1282:1751  function registerFlight(string calldata flightId) external payable {... */\n    tag_14:\n        /* \"Zeph.sol\":1380:1381  0 */\n      0x00\n        /* \"Zeph.sol\":1368:1377  msg.value */\n      callvalue\n        /* \"Zeph.sol\":1368:1381  msg.value > 0 */\n      gt\n        /* \"Zeph.sol\":1360:1404  require(msg.value > 0, \"Send escrow amount\") */\n      tag_44\n      jumpi\n      mload(0x40)\n      0x08c379a000000000000000000000000000000000000000000000000000000000\n      dup2\n      mstore\n      0x04\n      add\n      tag_45\n      swap1\n      tag_46\n      jump\t// in\n    tag_45:\n      mload(0x40)\n      dup1\n      swap2\n      sub\n      swap1\n      revert\n    tag_44:\n        /* \"Zeph.sol\":1415:1426  bytes32 key */\n      0x00\n        /* \"Zeph.sol\":1450:1458  flightId */\n      dup3\n      dup3\n        /* \"Zeph.sol\":1439:1459  abi.encode(flightId) */\n      add(0x20, mload(0x40))\n      tag_47\n      swap3\n      swap2\n      swap1\n      tag_48\n      jump\t// in\n    tag_47:\n      mload(0x40)\n      0x20\n      dup2\n      dup4\n      sub\n      sub\n      dup2\n      mstore\n      swap1\n      0x40\n      mstore\n        /* \"Zeph.sol\":1429:1460  keccak256(abi.encode(flightId)) */\n      dup1\n      mload\n      swap1\n      0x20\n      add\n      keccak256\n        /* \"Zeph.sol\":1415:1460  bytes32 key = keccak256(abi.encode(flightId)) */\n      swap1\n      pop\n        /* \"Zeph.sol\":1473:1494  ClaimRecord storage r */\n      0x00\n        /* \"Zeph.sol\":1497:1503  claims */\n      0x01\n        /* \"Zeph.sol\":1497:1508  claims[key] */\n      0x00\n        /* \"Zeph.sol\":1504:1507  key */\n      dup4\n        /* \"Zeph.sol\":1497:1508  claims[key] */\n      dup2\n      mstore\n      0x20\n      add\n      swap1\n      dup2\n      mstore\n      0x20\n      add\n      0x00\n      keccak256\n        /* \"Zeph.sol\":1497:1520  claims[key][msg.sender] */\n      0x00\n        /* \"Zeph.sol\":1509:1519  msg.sender */\n      caller\n        /* \"Zeph.sol\":1497:1520  claims[key][msg.sender] */\n      0xffffffffffffffffffffffffffffffffffffffff\n      and\n      0xffffffffffffffffffffffffffffffffffffffff\n      and\n      dup2\n      mstore\n      0x20\n      add\n      swap1\n      dup2\n      mstore\n      0x20\n      add\n      0x00\n      keccak256\n        /* \"Zeph.sol\":1473:1520  ClaimRecord storage r = claims[key][msg.sender] */\n      swap1\n      pop\n        /* \"Zeph.sol\":1540:1541  r */\n      dup1\n        /* \"Zeph.sol\":1540:1552  r.registered */\n      0x01\n      add\n      0x00\n      swap1\n      sload\n      swap1\n      0x0100\n      exp\n      swap1\n      div\n      0xff\n      and\n        /* \"Zeph.sol\":1539:1552  !r.registered */\n      iszero\n        /* \"Zeph.sol\":1531:1575  require(!r.registered, \"Already registered\") */\n      tag_49\n      jumpi\n      mload(0x40)\n      0x08c379a000000000000000000000000000000000000000000000000000000000\n      dup2\n      mstore\n      0x04\n      add\n      tag_50\n      swap1\n      tag_51\n      jump\t// in\n    tag_50:\n      mload(0x40)\n      dup1\n      swap2\n      sub\n      swap1\n      revert\n    tag_49:\n        /* \"Zeph.sol\":1605:1614  msg.value */\n      callvalue\n        /* \"Zeph.sol\":1588:1589  r */\n      dup2\n        /* \"Zeph.sol\":1588:1602  r.escrowAmount */\n      0x00\n      add\n        /* \"Zeph.sol\":1588:1614  r.escrowAmount = msg.value */\n      dup2\n      swap1\n      sstore\n      pop\n        /* \"Zeph.sol\":1640:1644  true */\n      0x01\n        /* \"Zeph.sol\":1625:1626  r */\n      dup2\n        /* \"Zeph.sol\":1625:1637  r.registered */\n      0x01\n      add\n      0x00\n        /* \"Zeph.sol\":1625:1644  r.registered = true */\n      0x0100\n      exp\n      dup2\n      sload\n      dup2\n      0xff\n      mul\n      not\n      and\n      swap1\n      dup4\n      iszero\n      iszero\n      mul\n      or\n      swap1\n      sstore\n      pop\n        /* \"Zeph.sol\":1671:1676  false */\n      0x00\n        /* \"Zeph.sol\":1655:1656  r */\n      dup2\n        /* \"Zeph.sol\":1655:1668  r.compensated */\n      0x01\n      add\n      0x01\n        /* \"Zeph.sol\":1655:1676  r.compensated = false */\n      0x0100\n      exp\n      dup2\n      sload\n      dup2\n      0xff\n      mul\n      not\n      and\n      swap1\n      dup4\n      iszero\n      iszero\n      mul\n      or\n      swap1\n      sstore\n      pop\n        /* \"Zeph.sol\":1721:1731  msg.sender */\n      caller\n        /* \"Zeph.sol\":1694:1743  FlightRegistered(flightId, msg.sender, msg.value) */\n      0xffffffffffffffffffffffffffffffffffffffff\n      and\n      0xa59671bc0b480bd60b5b4405cbd50cadea668f34d55e2b19da00c04acd8fed60\n        /* \"Zeph.sol\":1711:1719  flightId */\n      dup6\n      dup6\n        /* \"Zeph.sol\":1733:1742  msg.value */\n      callvalue\n        /* \"Zeph.sol\":1694:1743  FlightRegistered(flightId, msg.sender, msg.value) */\n      mload(0x40)\n      tag_52\n      swap4\n      swap3\n      swap2\n      swap1\n      tag_53\n      jump\t// in\n    tag_52:\n      mload(0x40)\n      dup1\n      swap2\n      sub\n      swap1\n      log2\n        /* \"Zeph.sol\":1349:1751  {... */\n      pop\n      pop\n        /* \"Zeph.sol\":1282:1751  function registerFlight(string calldata flightId) external payable {... */\n      pop\n      pop\n      jump\t// out\n        /* \"Zeph.sol\":2182:2957  function requestCompensation(string calldata flightId) external {... */\n    tag_18:\n        /* \"Zeph.sol\":2257:2268  bytes32 key */\n      0x00\n        /* \"Zeph.sol\":2292:2300  flightId */\n      dup3\n      dup3\n        /* \"Zeph.sol\":2281:2301  abi.encode(flightId) */\n      add(0x20, mload(0x40))\n      tag_55\n      swap3\n      swap2\n      swap1\n      tag_48\n      jump\t// in\n    tag_55:\n      mload(0x40)\n      0x20\n      dup2\n      dup4\n      sub\n      sub\n      dup2\n      mstore\n      swap1\n      0x40\n      mstore\n        /* \"Zeph.sol\":2271:2302  keccak256(abi.encode(flightId)) */\n      dup1\n      mload\n      swap1\n      0x20\n      add\n      keccak256\n        /* \"Zeph.sol\":2257:2302  bytes32 key = keccak256(abi.encode(flightId)) */\n      swap1\n      pop\n        /* \"Zeph.sol\":2313:2334  ClaimRecord storage r */\n      0x00\n        /* \"Zeph.sol\":2337:2343  claims */\n      0x01\n        /* \"Zeph.sol\":2337:2348  claims[key] */\n      0x00\n        /* \"Zeph.sol\":2344:2347  key */\n      dup4\n        /* \"Zeph.sol\":2337:2348  claims[key] */\n      dup2\n      mstore\n      0x20\n      add\n      swap1\n      dup2\n      mstore\n      0x20\n      add\n      0x00\n      keccak256\n        /* \"Zeph.sol\":2337:2360  claims[key][msg.sender] */\n      0x00\n        /* \"Zeph.sol\":2349:2359  msg.sender */\n      caller\n        /* \"Zeph.sol\":2337:2360  claims[key][msg.sender] */\n      0xffffffffffffffffffffffffffffffffffffffff\n      and\n      0xffffffffffffffffffffffffffffffffffffffff\n      and\n      dup2\n      mstore\n      0x20\n      add\n      swap1\n      dup2\n      mstore\n      0x20\n      add\n      0x00\n      keccak256\n        /* \"Zeph.sol\":2313:2360  ClaimRecord storage r = claims[key][msg.sender] */\n      swap1\n      pop\n        /* \"Zeph.sol\":2381:2382  r */\n      dup1\n        /* \"Zeph.sol\":2381:2393  r.registered */\n      0x01\n      add\n      0x00\n      swap1\n      sload\n      swap1\n      0x0100\n      exp\n      swap1\n      div\n      0xff\n      and\n        /* \"Zeph.sol\":2373:2419  require(r.registered, \"Flight not registered\") */\n      tag_56\n      jumpi\n      mload(0x40)\n      0x08c379a000000000000000000000000000000000000000000000000000000000\n      dup2\n      mstore\n      0x04\n      add\n      tag_57\n      swap1\n      tag_58\n      jump\t// in\n    tag_57:\n      mload(0x40)\n      dup1\n      swap2\n      sub\n      swap1\n      revert\n    tag_56:\n        /* \"Zeph.sol\":2439:2440  r */\n      dup1\n        /* \"Zeph.sol\":2439:2452  r.compensated */\n      0x01\n      add\n      0x01\n      swap1\n      sload\n      swap1\n      0x0100\n      exp\n      swap1\n      div\n      0xff\n      and\n        /* \"Zeph.sol\":2438:2452  !r.compensated */\n      iszero\n        /* \"Zeph.sol\":2430:2476  require(!r.compensated, \"Already compensated\") */\n      tag_59\n      jumpi\n      mload(0x40)\n      0x08c379a000000000000000000000000000000000000000000000000000000000\n      dup2\n      mstore\n      0x04\n      add\n      tag_60\n      swap1\n      tag_61\n      jump\t// in\n    tag_60:\n      mload(0x40)\n      dup1\n      swap2\n      sub\n      swap1\n      revert\n    tag_59:\n        /* \"Zeph.sol\":2495:2508  flightDelayed */\n      0x02\n        /* \"Zeph.sol\":2495:2513  flightDelayed[key] */\n      0x00\n        /* \"Zeph.sol\":2509:2512  key */\n      dup4\n        /* \"Zeph.sol\":2495:2513  flightDelayed[key] */\n      dup2\n      mstore\n      0x20\n      add\n      swap1\n      dup2\n      mstore\n      0x20\n      add\n      0x00\n      keccak256\n      0x00\n      swap1\n      sload\n      swap1\n      0x0100\n      exp\n      swap1\n      div\n      0xff\n      and\n        /* \"Zeph.sol\":2487:2536  require(flightDelayed[key], \"Flight not delayed\") */\n      tag_62\n      jumpi\n      mload(0x40)\n      0x08c379a000000000000000000000000000000000000000000000000000000000\n      dup2\n      mstore\n      0x04\n      add\n      tag_63\n      swap1\n      tag_64\n      jump\t// in\n    tag_63:\n      mload(0x40)\n      dup1\n      swap2\n      sub\n      swap1\n      revert\n    tag_62:\n        /* \"Zeph.sol\":2611:2631  uint256 compensation */\n      0x00\n        /* \"Zeph.sol\":2651:2652  2 */\n      0x02\n        /* \"Zeph.sol\":2634:2635  r */\n      dup3\n        /* \"Zeph.sol\":2634:2648  r.escrowAmount */\n      0x00\n      add\n      sload\n        /* \"Zeph.sol\":2634:2652  r.escrowAmount * 2 */\n      tag_65\n      swap2\n      swap1\n      tag_66\n      jump\t// in\n    tag_65:\n        /* \"Zeph.sol\":2611:2652  uint256 compensation = r.escrowAmount * 2 */\n      swap1\n      pop\n        /* \"Zeph.sol\":2696:2708  compensation */\n      dup1\n        /* \"Zeph.sol\":2671:2692  address(this).balance */\n      selfbalance\n        /* \"Zeph.sol\":2671:2708  address(this).balance >= compensation */\n      lt\n      iszero\n        /* \"Zeph.sol\":2663:2738  require(address(this).balance >= compensation, \"Contract needs more funds\") */\n      tag_67\n      jumpi\n      mload(0x40)\n      0x08c379a000000000000000000000000000000000000000000000000000000000\n      dup2\n      mstore\n      0x04\n      add\n      tag_68\n      swap1\n      tag_69\n      jump\t// in\n    tag_68:\n      mload(0x40)\n      dup1\n      swap2\n      sub\n      swap1\n      revert\n    tag_67:\n        /* \"Zeph.sol\":2767:2771  true */\n      0x01\n        /* \"Zeph.sol\":2751:2752  r */\n      dup3\n        /* \"Zeph.sol\":2751:2764  r.compensated */\n      0x01\n      add\n      0x01\n        /* \"Zeph.sol\":2751:2771  r.compensated = true */\n      0x0100\n      exp\n      dup2\n      sload\n      dup2\n      0xff\n      mul\n      not\n      and\n      swap1\n      dup4\n      iszero\n      iszero\n      mul\n      or\n      swap1\n      sstore\n      pop\n        /* \"Zeph.sol\":2785:2792  bool ok */\n      0x00\n        /* \"Zeph.sol\":2798:2808  msg.sender */\n      caller\n        /* \"Zeph.sol\":2798:2813  msg.sender.call */\n      0xffffffffffffffffffffffffffffffffffffffff\n      and\n        /* \"Zeph.sol\":2821:2833  compensation */\n      dup3\n        /* \"Zeph.sol\":2798:2838  msg.sender.call{value: compensation}(\"\") */\n      mload(0x40)\n      tag_70\n      swap1\n      tag_71\n      jump\t// in\n    tag_70:\n      0x00\n      mload(0x40)\n      dup1\n      dup4\n      sub\n      dup2\n      dup6\n      dup8\n      gas\n      call\n      swap3\n      pop\n      pop\n      pop\n      returndatasize\n      dup1\n      0x00\n      dup2\n      eq\n      tag_74\n      jumpi\n      mload(0x40)\n      swap2\n      pop\n      and(add(returndatasize, 0x3f), not(0x1f))\n      dup3\n      add\n      0x40\n      mstore\n      returndatasize\n      dup3\n      mstore\n      returndatasize\n      0x00\n      0x20\n      dup5\n      add\n      returndatacopy\n      jump(tag_73)\n    tag_74:\n      0x60\n      swap2\n      pop\n    tag_73:\n      pop\n        /* \"Zeph.sol\":2784:2838  (bool ok, ) = msg.sender.call{value: compensation}(\"\") */\n      pop\n      swap1\n      pop\n        /* \"Zeph.sol\":2857:2859  ok */\n      dup1\n        /* \"Zeph.sol\":2849:2879  require(ok, \"Transfer failed\") */\n      tag_75\n      jumpi\n      mload(0x40)\n      0x08c379a000000000000000000000000000000000000000000000000000000000\n      dup2\n      mstore\n      0x04\n      add\n      tag_76\n      swap1\n      tag_77\n      jump\t// in\n    tag_76:\n      mload(0x40)\n      dup1\n      swap2\n      sub\n      swap1\n      revert\n    tag_75:\n        /* \"Zeph.sol\":2924:2934  msg.sender */\n      caller\n        /* \"Zeph.sol\":2897:2949  CompensationPaid(flightId, msg.sender, compensation) */\n      0xffffffffffffffffffffffffffffffffffffffff\n      and\n      0xded485c2513e9aa2c43424b680757f4e28b95773577b2c78f5083c50c528dd8c\n        /* \"Zeph.sol\":2914:2922  flightId */\n      dup8\n      dup8\n        /* \"Zeph.sol\":2936:2948  compensation */\n      dup6\n        /* \"Zeph.sol\":2897:2949  CompensationPaid(flightId, msg.sender, compensation) */\n      mload(0x40)\n      tag_78\n      swap4\n      swap3\n      swap2\n      swap1\n      tag_53\n      jump\t// in\n    tag_78:\n      mload(0x40)\n      dup1\n      swap2\n      sub\n      swap1\n      log2\n        /* \"Zeph.sol\":2246:2957  {... */\n      pop\n      pop\n      pop\n      pop\n        /* \"Zeph.sol\":2182:2957  function requestCompensation(string calldata flightId) external {... */\n      pop\n      pop\n      jump\t// out\n        /* \"Zeph.sol\":621:686  mapping(bytes32 => mapping(address => ClaimRecord)) public claims */\n    tag_23:\n      mstore(0x20, 0x01)\n      dup2\n      0x00\n      mstore\n      mstore(0x20, keccak256(0x00, 0x40))\n      dup1\n      0x00\n      mstore\n      keccak256(0x00, 0x40)\n      0x00\n      swap2\n      pop\n      swap2\n      pop\n      pop\n      dup1\n      0x00\n      add\n      sload\n      swap1\n      dup1\n      0x01\n      add\n      0x00\n      swap1\n      sload\n      swap1\n      0x0100\n      exp\n      swap1\n      div\n      0xff\n      and\n      swap1\n      dup1\n      0x01\n      add\n      0x01\n      swap1\n      sload\n      swap1\n      0x0100\n      exp\n      swap1\n      div\n      0xff\n      and\n      swap1\n      pop\n      dup4\n      jump\t// out\n        /* \"Zeph.sol\":733:778  mapping(bytes32 => bool) public flightDelayed */\n    tag_30:\n      mstore(0x20, 0x02)\n      dup1\n      0x00\n      mstore\n      keccak256(0x00, 0x40)\n      0x00\n      swap2\n      pop\n      sload\n      swap1\n      0x0100\n      exp\n      swap1\n      div\n      0xff\n      and\n      dup2\n      jump\t// out\n        /* \"Zeph.sol\":1852:2094  function setFlightDelayed(string calldata flightId, bool delayed) external onlyAdmin {... */\n    tag_37:\n        /* \"Zeph.sol\":1088:1093  admin */\n      0x00\n      dup1\n      sload\n      swap1\n      0x0100\n      exp\n      swap1\n      div\n      0xffffffffffffffffffffffffffffffffffffffff\n      and\n        /* \"Zeph.sol\":1074:1093  msg.sender == admin */\n      0xffffffffffffffffffffffffffffffffffffffff\n      and\n        /* \"Zeph.sol\":1074:1084  msg.sender */\n      caller\n        /* \"Zeph.sol\":1074:1093  msg.sender == admin */\n      0xffffffffffffffffffffffffffffffffffffffff\n      and\n      eq\n        /* \"Zeph.sol\":1066:1108  require(msg.sender == admin, \"Only admin\") */\n      tag_80\n      jumpi\n      mload(0x40)\n      0x08c379a000000000000000000000000000000000000000000000000000000000\n      dup2\n      mstore\n      0x04\n      add\n      tag_81\n      swap1\n      tag_82\n      jump\t// in\n    tag_81:\n      mload(0x40)\n      dup1\n      swap2\n      sub\n      swap1\n      revert\n    tag_80:\n        /* \"Zeph.sol\":1948:1959  bytes32 key */\n      0x00\n        /* \"Zeph.sol\":1983:1991  flightId */\n      dup4\n      dup4\n        /* \"Zeph.sol\":1972:1992  abi.encode(flightId) */\n      add(0x20, mload(0x40))\n      tag_84\n      swap3\n      swap2\n      swap1\n      tag_48\n      jump\t// in\n    tag_84:\n      mload(0x40)\n      0x20\n      dup2\n      dup4\n      sub\n      sub\n      dup2\n      mstore\n      swap1\n      0x40\n      mstore\n        /* \"Zeph.sol\":1962:1993  keccak256(abi.encode(flightId)) */\n      dup1\n      mload\n      swap1\n      0x20\n      add\n      keccak256\n        /* \"Zeph.sol\":1948:1993  bytes32 key = keccak256(abi.encode(flightId)) */\n      swap1\n      pop\n        /* \"Zeph.sol\":2025:2032  delayed */\n      dup2\n        /* \"Zeph.sol\":2004:2017  flightDelayed */\n      0x02\n        /* \"Zeph.sol\":2004:2022  flightDelayed[key] */\n      0x00\n        /* \"Zeph.sol\":2018:2021  key */\n      dup4\n        /* \"Zeph.sol\":2004:2022  flightDelayed[key] */\n      dup2\n      mstore\n      0x20\n      add\n      swap1\n      dup2\n      mstore\n      0x20\n      add\n      0x00\n      keccak256\n      0x00\n        /* \"Zeph.sol\":2004:2032  flightDelayed[key] = delayed */\n      0x0100\n      exp\n      dup2\n      sload\n      dup2\n      0xff\n      mul\n      not\n      and\n      swap1\n      dup4\n      iszero\n      iszero\n      mul\n      or\n      swap1\n      sstore\n      pop\n        /* \"Zeph.sol\":2048:2086  FlightStatusUpdated(flightId, delayed) */\n      0xf473421c357e27f83e2a01e6aea4554e408532c925812801e901592ff7a05c18\n        /* \"Zeph.sol\":2068:2076  flightId */\n      dup5\n      dup5\n        /* \"Zeph.sol\":2078:2085  delayed */\n      dup5\n        /* \"Zeph.sol\":2048:2086  FlightStatusUpdated(flightId, delayed) */\n      mload(0x40)\n      tag_85\n      swap4\n      swap3\n      swap2\n      swap1\n      tag_86\n      jump\t// in\n    tag_85:\n      mload(0x40)\n      dup1\n      swap2\n      sub\n      swap1\n      log1\n        /* \"Zeph.sol\":1937:2094  {... */\n      pop\n        /* \"Zeph.sol\":1852:2094  function setFlightDelayed(string calldata flightId, bool delayed) external onlyAdmin {... */\n      pop\n      pop\n      pop\n      jump\t// out\n        /* \"Zeph.sol\":270:290  address public admin */\n    tag_40:\n      0x00\n      dup1\n      sload\n      swap1\n      0x0100\n      exp\n      swap1\n      div\n      0xffffffffffffffffffffffffffffffffffffffff\n      and\n      dup2\n      jump\t// out\n        /* \"#utility.yul\":88:205   */\n    tag_88:\n        /* \"#utility.yul\":197:198   */\n      0x00\n        /* \"#utility.yul\":194:195   */\n      dup1\n        /* \"#utility.yul\":187:199   */\n      revert\n        /* \"#utility.yul\":211:328   */\n    tag_89:\n        /* \"#utility.yul\":320:321   */\n      0x00\n        /* \"#utility.yul\":317:318   */\n      dup1\n        /* \"#utility.yul\":310:322   */\n      revert\n        /* \"#utility.yul\":334:451   */\n    tag_90:\n        /* \"#utility.yul\":443:444   */\n      0x00\n        /* \"#utility.yul\":440:441   */\n      dup1\n        /* \"#utility.yul\":433:445   */\n      revert\n        /* \"#utility.yul\":457:574   */\n    tag_91:\n        /* \"#utility.yul\":566:567   */\n      0x00\n        /* \"#utility.yul\":563:564   */\n      dup1\n        /* \"#utility.yul\":556:568   */\n      revert\n        /* \"#utility.yul\":580:697   */\n    tag_92:\n        /* \"#utility.yul\":689:690   */\n      0x00\n        /* \"#utility.yul\":686:687   */\n      dup1\n        /* \"#utility.yul\":679:691   */\n      revert\n        /* \"#utility.yul\":717:1270   */\n    tag_93:\n        /* \"#utility.yul\":775:783   */\n      0x00\n        /* \"#utility.yul\":785:791   */\n      dup1\n        /* \"#utility.yul\":835:838   */\n      dup4\n        /* \"#utility.yul\":828:832   */\n      0x1f\n        /* \"#utility.yul\":820:826   */\n      dup5\n        /* \"#utility.yul\":816:833   */\n      add\n        /* \"#utility.yul\":812:839   */\n      slt\n        /* \"#utility.yul\":802:924   */\n      tag_140\n      jumpi\n        /* \"#utility.yul\":843:922   */\n      tag_141\n      tag_90\n      jump\t// in\n    tag_141:\n        /* \"#utility.yul\":802:924   */\n    tag_140:\n        /* \"#utility.yul\":956:962   */\n      dup3\n        /* \"#utility.yul\":943:963   */\n      calldataload\n        /* \"#utility.yul\":933:963   */\n      swap1\n      pop\n        /* \"#utility.yul\":986:1004   */\n      0xffffffffffffffff\n        /* \"#utility.yul\":978:984   */\n      dup2\n        /* \"#utility.yul\":975:1005   */\n      gt\n        /* \"#utility.yul\":972:1089   */\n      iszero\n      tag_142\n      jumpi\n        /* \"#utility.yul\":1008:1087   */\n      tag_143\n      tag_91\n      jump\t// in\n    tag_143:\n        /* \"#utility.yul\":972:1089   */\n    tag_142:\n        /* \"#utility.yul\":1122:1126   */\n      0x20\n        /* \"#utility.yul\":1114:1120   */\n      dup4\n        /* \"#utility.yul\":1110:1127   */\n      add\n        /* \"#utility.yul\":1098:1127   */\n      swap2\n      pop\n        /* \"#utility.yul\":1176:1179   */\n      dup4\n        /* \"#utility.yul\":1168:1172   */\n      0x01\n        /* \"#utility.yul\":1160:1166   */\n      dup3\n        /* \"#utility.yul\":1156:1173   */\n      mul\n        /* \"#utility.yul\":1146:1154   */\n      dup4\n        /* \"#utility.yul\":1142:1174   */\n      add\n        /* \"#utility.yul\":1139:1180   */\n      gt\n        /* \"#utility.yul\":1136:1264   */\n      iszero\n      tag_144\n      jumpi\n        /* \"#utility.yul\":1183:1262   */\n      tag_145\n      tag_92\n      jump\t// in\n    tag_145:\n        /* \"#utility.yul\":1136:1264   */\n    tag_144:\n        /* \"#utility.yul\":717:1270   */\n      swap3\n      pop\n      swap3\n      swap1\n      pop\n      jump\t// out\n        /* \"#utility.yul\":1276:1805   */\n    tag_13:\n        /* \"#utility.yul\":1347:1353   */\n      0x00\n        /* \"#utility.yul\":1355:1361   */\n      dup1\n        /* \"#utility.yul\":1404:1406   */\n      0x20\n        /* \"#utility.yul\":1392:1401   */\n      dup4\n        /* \"#utility.yul\":1383:1390   */\n      dup6\n        /* \"#utility.yul\":1379:1402   */\n      sub\n        /* \"#utility.yul\":1375:1407   */\n      slt\n        /* \"#utility.yul\":1372:1491   */\n      iszero\n      tag_147\n      jumpi\n        /* \"#utility.yul\":1410:1489   */\n      tag_148\n      tag_88\n      jump\t// in\n    tag_148:\n        /* \"#utility.yul\":1372:1491   */\n    tag_147:\n        /* \"#utility.yul\":1558:1559   */\n      0x00\n        /* \"#utility.yul\":1547:1556   */\n      dup4\n        /* \"#utility.yul\":1543:1560   */\n      add\n        /* \"#utility.yul\":1530:1561   */\n      calldataload\n        /* \"#utility.yul\":1588:1606   */\n      0xffffffffffffffff\n        /* \"#utility.yul\":1580:1586   */\n      dup2\n        /* \"#utility.yul\":1577:1607   */\n      gt\n        /* \"#utility.yul\":1574:1691   */\n      iszero\n      tag_149\n      jumpi\n        /* \"#utility.yul\":1610:1689   */\n      tag_150\n      tag_89\n      jump\t// in\n    tag_150:\n        /* \"#utility.yul\":1574:1691   */\n    tag_149:\n        /* \"#utility.yul\":1723:1788   */\n      tag_151\n        /* \"#utility.yul\":1780:1787   */\n      dup6\n        /* \"#utility.yul\":1771:1777   */\n      dup3\n        /* \"#utility.yul\":1760:1769   */\n      dup7\n        /* \"#utility.yul\":1756:1778   */\n      add\n        /* \"#utility.yul\":1723:1788   */\n      tag_93\n      jump\t// in\n    tag_151:\n        /* \"#utility.yul\":1705:1788   */\n      swap3\n      pop\n      swap3\n      pop\n        /* \"#utility.yul\":1501:1798   */\n      pop\n        /* \"#utility.yul\":1276:1805   */\n      swap3\n      pop\n      swap3\n      swap1\n      pop\n      jump\t// out\n        /* \"#utility.yul\":1811:1888   */\n    tag_94:\n        /* \"#utility.yul\":1848:1855   */\n      0x00\n        /* \"#utility.yul\":1877:1882   */\n      dup2\n        /* \"#utility.yul\":1866:1882   */\n      swap1\n      pop\n        /* \"#utility.yul\":1811:1888   */\n      swap2\n      swap1\n      pop\n      jump\t// out\n        /* \"#utility.yul\":1894:2016   */\n    tag_95:\n        /* \"#utility.yul\":1967:1991   */\n      tag_154\n        /* \"#utility.yul\":1985:1990   */\n      dup2\n        /* \"#utility.yul\":1967:1991   */\n      tag_94\n      jump\t// in\n    tag_154:\n        /* \"#utility.yul\":1960:1965   */\n      dup2\n        /* \"#utility.yul\":1957:1992   */\n      eq\n        /* \"#utility.yul\":1947:2010   */\n      tag_155\n      jumpi\n        /* \"#utility.yul\":2006:2007   */\n      0x00\n        /* \"#utility.yul\":2003:2004   */\n      dup1\n        /* \"#utility.yul\":1996:2008   */\n      revert\n        /* \"#utility.yul\":1947:2010   */\n    tag_155:\n        /* \"#utility.yul\":1894:2016   */\n      pop\n      jump\t// out\n        /* \"#utility.yul\":2022:2161   */\n    tag_96:\n        /* \"#utility.yul\":2068:2073   */\n      0x00\n        /* \"#utility.yul\":2106:2112   */\n      dup2\n        /* \"#utility.yul\":2093:2113   */\n      calldataload\n        /* \"#utility.yul\":2084:2113   */\n      swap1\n      pop\n        /* \"#utility.yul\":2122:2155   */\n      tag_157\n        /* \"#utility.yul\":2149:2154   */\n      dup2\n        /* \"#utility.yul\":2122:2155   */\n      tag_95\n      jump\t// in\n    tag_157:\n        /* \"#utility.yul\":2022:2161   */\n      swap3\n      swap2\n      pop\n      pop\n      jump\t// out\n        /* \"#utility.yul\":2167:2293   */\n    tag_97:\n        /* \"#utility.yul\":2204:2211   */\n      0x00\n        /* \"#utility.yul\":2244:2286   */\n      0xffffffffffffffffffffffffffffffffffffffff\n        /* \"#utility.yul\":2237:2242   */\n      dup3\n        /* \"#utility.yul\":2233:2287   */\n      and\n        /* \"#utility.yul\":2222:2287   */\n      swap1\n      pop\n        /* \"#utility.yul\":2167:2293   */\n      swap2\n      swap1\n      pop\n      jump\t// out\n        /* \"#utility.yul\":2299:2395   */\n    tag_98:\n        /* \"#utility.yul\":2336:2343   */\n      0x00\n        /* \"#utility.yul\":2365:2389   */\n      tag_160\n        /* \"#utility.yul\":2383:2388   */\n      dup3\n        /* \"#utility.yul\":2365:2389   */\n      tag_97\n      jump\t// in\n    tag_160:\n        /* \"#utility.yul\":2354:2389   */\n      swap1\n      pop\n        /* \"#utility.yul\":2299:2395   */\n      swap2\n      swap1\n      pop\n      jump\t// out\n        /* \"#utility.yul\":2401:2523   */\n    tag_99:\n        /* \"#utility.yul\":2474:2498   */\n      tag_162\n        /* \"#utility.yul\":2492:2497   */\n      dup2\n        /* \"#utility.yul\":2474:2498   */\n      tag_98\n      jump\t// in\n    tag_162:\n        /* \"#utility.yul\":2467:2472   */\n      dup2\n        /* \"#utility.yul\":2464:2499   */\n      eq\n        /* \"#utility.yul\":2454:2517   */\n      tag_163\n      jumpi\n        /* \"#utility.yul\":2513:2514   */\n      0x00\n        /* \"#utility.yul\":2510:2511   */\n      dup1\n        /* \"#utility.yul\":2503:2515   */\n      revert\n        /* \"#utility.yul\":2454:2517   */\n    tag_163:\n        /* \"#utility.yul\":2401:2523   */\n      pop\n      jump\t// out\n        /* \"#utility.yul\":2529:2668   */\n    tag_100:\n        /* \"#utility.yul\":2575:2580   */\n      0x00\n        /* \"#utility.yul\":2613:2619   */\n      dup2\n        /* \"#utility.yul\":2600:2620   */\n      calldataload\n        /* \"#utility.yul\":2591:2620   */\n      swap1\n      pop\n        /* \"#utility.yul\":2629:2662   */\n      tag_165\n        /* \"#utility.yul\":2656:2661   */\n      dup2\n        /* \"#utility.yul\":2629:2662   */\n      tag_99\n      jump\t// in\n    tag_165:\n        /* \"#utility.yul\":2529:2668   */\n      swap3\n      swap2\n      pop\n      pop\n      jump\t// out\n        /* \"#utility.yul\":2674:3148   */\n    tag_22:\n        /* \"#utility.yul\":2742:2748   */\n      0x00\n        /* \"#utility.yul\":2750:2756   */\n      dup1\n        /* \"#utility.yul\":2799:2801   */\n      0x40\n        /* \"#utility.yul\":2787:2796   */\n      dup4\n        /* \"#utility.yul\":2778:2785   */\n      dup6\n        /* \"#utility.yul\":2774:2797   */\n      sub\n        /* \"#utility.yul\":2770:2802   */\n      slt\n        /* \"#utility.yul\":2767:2886   */\n      iszero\n      tag_167\n      jumpi\n        /* \"#utility.yul\":2805:2884   */\n      tag_168\n      tag_88\n      jump\t// in\n    tag_168:\n        /* \"#utility.yul\":2767:2886   */\n    tag_167:\n        /* \"#utility.yul\":2925:2926   */\n      0x00\n        /* \"#utility.yul\":2950:3003   */\n      tag_169\n        /* \"#utility.yul\":2995:3002   */\n      dup6\n        /* \"#utility.yul\":2986:2992   */\n      dup3\n        /* \"#utility.yul\":2975:2984   */\n      dup7\n        /* \"#utility.yul\":2971:2993   */\n      add\n        /* \"#utility.yul\":2950:3003   */\n      tag_96\n      jump\t// in\n    tag_169:\n        /* \"#utility.yul\":2940:3003   */\n      swap3\n      pop\n        /* \"#utility.yul\":2896:3013   */\n      pop\n        /* \"#utility.yul\":3052:3054   */\n      0x20\n        /* \"#utility.yul\":3078:3131   */\n      tag_170\n        /* \"#utility.yul\":3123:3130   */\n      dup6\n        /* \"#utility.yul\":3114:3120   */\n      dup3\n        /* \"#utility.yul\":3103:3112   */\n      dup7\n        /* \"#utility.yul\":3099:3121   */\n      add\n        /* \"#utility.yul\":3078:3131   */\n      tag_100\n      jump\t// in\n    tag_170:\n        /* \"#utility.yul\":3068:3131   */\n      swap2\n      pop\n        /* \"#utility.yul\":3023:3141   */\n      pop\n        /* \"#utility.yul\":2674:3148   */\n      swap3\n      pop\n      swap3\n      swap1\n      pop\n      jump\t// out\n        /* \"#utility.yul\":3154:3231   */\n    tag_101:\n        /* \"#utility.yul\":3191:3198   */\n      0x00\n        /* \"#utility.yul\":3220:3225   */\n      dup2\n        /* \"#utility.yul\":3209:3225   */\n      swap1\n      pop\n        /* \"#utility.yul\":3154:3231   */\n      swap2\n      swap1\n      pop\n      jump\t// out\n        /* \"#utility.yul\":3237:3355   */\n    tag_102:\n        /* \"#utility.yul\":3324:3348   */\n      tag_173\n        /* \"#utility.yul\":3342:3347   */\n      dup2\n        /* \"#utility.yul\":3324:3348   */\n      tag_101\n      jump\t// in\n    tag_173:\n        /* \"#utility.yul\":3319:3322   */\n      dup3\n        /* \"#utility.yul\":3312:3349   */\n      mstore\n        /* \"#utility.yul\":3237:3355   */\n      pop\n      pop\n      jump\t// out\n        /* \"#utility.yul\":3361:3451   */\n    tag_103:\n        /* \"#utility.yul\":3395:3402   */\n      0x00\n        /* \"#utility.yul\":3438:3443   */\n      dup2\n        /* \"#utility.yul\":3431:3444   */\n      iszero\n        /* \"#utility.yul\":3424:3445   */\n      iszero\n        /* \"#utility.yul\":3413:3445   */\n      swap1\n      pop\n        /* \"#utility.yul\":3361:3451   */\n      swap2\n      swap1\n      pop\n      jump\t// out\n        /* \"#utility.yul\":3457:3566   */\n    tag_104:\n        /* \"#utility.yul\":3538:3559   */\n      tag_176\n        /* \"#utility.yul\":3553:3558   */\n      dup2\n        /* \"#utility.yul\":3538:3559   */\n      tag_103\n      jump\t// in\n    tag_176:\n        /* \"#utility.yul\":3533:3536   */\n      dup3\n        /* \"#utility.yul\":3526:3560   */\n      mstore\n        /* \"#utility.yul\":3457:3566   */\n      pop\n      pop\n      jump\t// out\n        /* \"#utility.yul\":3572:3990   */\n    tag_25:\n        /* \"#utility.yul\":3709:3713   */\n      0x00\n        /* \"#utility.yul\":3747:3749   */\n      0x60\n        /* \"#utility.yul\":3736:3745   */\n      dup3\n        /* \"#utility.yul\":3732:3750   */\n      add\n        /* \"#utility.yul\":3724:3750   */\n      swap1\n      pop\n        /* \"#utility.yul\":3760:3831   */\n      tag_178\n        /* \"#utility.yul\":3828:3829   */\n      0x00\n        /* \"#utility.yul\":3817:3826   */\n      dup4\n        /* \"#utility.yul\":3813:3830   */\n      add\n        /* \"#utility.yul\":3804:3810   */\n      dup7\n        /* \"#utility.yul\":3760:3831   */\n      tag_102\n      jump\t// in\n    tag_178:\n        /* \"#utility.yul\":3841:3907   */\n      tag_179\n        /* \"#utility.yul\":3903:3905   */\n      0x20\n        /* \"#utility.yul\":3892:3901   */\n      dup4\n        /* \"#utility.yul\":3888:3906   */\n      add\n        /* \"#utility.yul\":3879:3885   */\n      dup6\n        /* \"#utility.yul\":3841:3907   */\n      tag_104\n      jump\t// in\n    tag_179:\n        /* \"#utility.yul\":3917:3983   */\n      tag_180\n        /* \"#utility.yul\":3979:3981   */\n      0x40\n        /* \"#utility.yul\":3968:3977   */\n      dup4\n        /* \"#utility.yul\":3964:3982   */\n      add\n        /* \"#utility.yul\":3955:3961   */\n      dup5\n        /* \"#utility.yul\":3917:3983   */\n      tag_104\n      jump\t// in\n    tag_180:\n        /* \"#utility.yul\":3572:3990   */\n      swap5\n      swap4\n      pop\n      pop\n      pop\n      pop\n      jump\t// out\n        /* \"#utility.yul\":3996:4325   */\n    tag_29:\n        /* \"#utility.yul\":4055:4061   */\n      0x00\n        /* \"#utility.yul\":4104:4106   */\n      0x20\n        /* \"#utility.yul\":4092:4101   */\n      dup3\n        /* \"#utility.yul\":4083:4090   */\n      dup5\n        /* \"#utility.yul\":4079:4102   */\n      sub\n        /* \"#utility.yul\":4075:4107   */\n      slt\n        /* \"#utility.yul\":4072:4191   */\n      iszero\n      tag_182\n      jumpi\n        /* \"#utility.yul\":4110:4189   */\n      tag_183\n      tag_88\n      jump\t// in\n    tag_183:\n        /* \"#utility.yul\":4072:4191   */\n    tag_182:\n        /* \"#utility.yul\":4230:4231   */\n      0x00\n        /* \"#utility.yul\":4255:4308   */\n      tag_184\n        /* \"#utility.yul\":4300:4307   */\n      dup5\n        /* \"#utility.yul\":4291:4297   */\n      dup3\n        /* \"#utility.yul\":4280:4289   */\n      dup6\n        /* \"#utility.yul\":4276:4298   */\n      add\n        /* \"#utility.yul\":4255:4308   */\n      tag_96\n      jump\t// in\n    tag_184:\n        /* \"#utility.yul\":4245:4308   */\n      swap2\n      pop\n        /* \"#utility.yul\":4201:4318   */\n      pop\n        /* \"#utility.yul\":3996:4325   */\n      swap3\n      swap2\n      pop\n      pop\n      jump\t// out\n        /* \"#utility.yul\":4331:4541   */\n    tag_32:\n        /* \"#utility.yul\":4418:4422   */\n      0x00\n        /* \"#utility.yul\":4456:4458   */\n      0x20\n        /* \"#utility.yul\":4445:4454   */\n      dup3\n        /* \"#utility.yul\":4441:4459   */\n      add\n        /* \"#utility.yul\":4433:4459   */\n      swap1\n      pop\n        /* \"#utility.yul\":4469:4534   */\n      tag_186\n        /* \"#utility.yul\":4531:4532   */\n      0x00\n        /* \"#utility.yul\":4520:4529   */\n      dup4\n        /* \"#utility.yul\":4516:4533   */\n      add\n        /* \"#utility.yul\":4507:4513   */\n      dup5\n        /* \"#utility.yul\":4469:4534   */\n      tag_104\n      jump\t// in\n    tag_186:\n        /* \"#utility.yul\":4331:4541   */\n      swap3\n      swap2\n      pop\n      pop\n      jump\t// out\n        /* \"#utility.yul\":4547:4663   */\n    tag_105:\n        /* \"#utility.yul\":4617:4638   */\n      tag_188\n        /* \"#utility.yul\":4632:4637   */\n      dup2\n        /* \"#utility.yul\":4617:4638   */\n      tag_103\n      jump\t// in\n    tag_188:\n        /* \"#utility.yul\":4610:4615   */\n      dup2\n        /* \"#utility.yul\":4607:4639   */\n      eq\n        /* \"#utility.yul\":4597:4657   */\n      tag_189\n      jumpi\n        /* \"#utility.yul\":4653:4654   */\n      0x00\n        /* \"#utility.yul\":4650:4651   */\n      dup1\n        /* \"#utility.yul\":4643:4655   */\n      revert\n        /* \"#utility.yul\":4597:4657   */\n    tag_189:\n        /* \"#utility.yul\":4547:4663   */\n      pop\n      jump\t// out\n        /* \"#utility.yul\":4669:4802   */\n    tag_106:\n        /* \"#utility.yul\":4712:4717   */\n      0x00\n        /* \"#utility.yul\":4750:4756   */\n      dup2\n        /* \"#utility.yul\":4737:4757   */\n      calldataload\n        /* \"#utility.yul\":4728:4757   */\n      swap1\n      pop\n        /* \"#utility.yul\":4766:4796   */\n      tag_191\n        /* \"#utility.yul\":4790:4795   */\n      dup2\n        /* \"#utility.yul\":4766:4796   */\n      tag_105\n      jump\t// in\n    tag_191:\n        /* \"#utility.yul\":4669:4802   */\n      swap3\n      swap2\n      pop\n      pop\n      jump\t// out\n        /* \"#utility.yul\":4808:5476   */\n    tag_36:\n        /* \"#utility.yul\":4885:4891   */\n      0x00\n        /* \"#utility.yul\":4893:4899   */\n      dup1\n        /* \"#utility.yul\":4901:4907   */\n      0x00\n        /* \"#utility.yul\":4950:4952   */\n      0x40\n        /* \"#utility.yul\":4938:4947   */\n      dup5\n        /* \"#utility.yul\":4929:4936   */\n      dup7\n        /* \"#utility.yul\":4925:4948   */\n      sub\n        /* \"#utility.yul\":4921:4953   */\n      slt\n        /* \"#utility.yul\":4918:5037   */\n      iszero\n      tag_193\n      jumpi\n        /* \"#utility.yul\":4956:5035   */\n      tag_194\n      tag_88\n      jump\t// in\n    tag_194:\n        /* \"#utility.yul\":4918:5037   */\n    tag_193:\n        /* \"#utility.yul\":5104:5105   */\n      0x00\n        /* \"#utility.yul\":5093:5102   */\n      dup5\n        /* \"#utility.yul\":5089:5106   */\n      add\n        /* \"#utility.yul\":5076:5107   */\n      calldataload\n        /* \"#utility.yul\":5134:5152   */\n      0xffffffffffffffff\n        /* \"#utility.yul\":5126:5132   */\n      dup2\n        /* \"#utility.yul\":5123:5153   */\n      gt\n        /* \"#utility.yul\":5120:5237   */\n      iszero\n      tag_195\n      jumpi\n        /* \"#utility.yul\":5156:5235   */\n      tag_196\n      tag_89\n      jump\t// in\n    tag_196:\n        /* \"#utility.yul\":5120:5237   */\n    tag_195:\n        /* \"#utility.yul\":5269:5334   */\n      tag_197\n        /* \"#utility.yul\":5326:5333   */\n      dup7\n        /* \"#utility.yul\":5317:5323   */\n      dup3\n        /* \"#utility.yul\":5306:5315   */\n      dup8\n        /* \"#utility.yul\":5302:5324   */\n      add\n        /* \"#utility.yul\":5269:5334   */\n      tag_93\n      jump\t// in\n    tag_197:\n        /* \"#utility.yul\":5251:5334   */\n      swap4\n      pop\n      swap4\n      pop\n        /* \"#utility.yul\":5047:5344   */\n      pop\n        /* \"#utility.yul\":5383:5385   */\n      0x20\n        /* \"#utility.yul\":5409:5459   */\n      tag_198\n        /* \"#utility.yul\":5451:5458   */\n      dup7\n        /* \"#utility.yul\":5442:5448   */\n      dup3\n        /* \"#utility.yul\":5431:5440   */\n      dup8\n        /* \"#utility.yul\":5427:5449   */\n      add\n        /* \"#utility.yul\":5409:5459   */\n      tag_106\n      jump\t// in\n    tag_198:\n        /* \"#utility.yul\":5399:5459   */\n      swap2\n      pop\n        /* \"#utility.yul\":5354:5469   */\n      pop\n        /* \"#utility.yul\":4808:5476   */\n      swap3\n      pop\n      swap3\n      pop\n      swap3\n      jump\t// out\n        /* \"#utility.yul\":5482:5600   */\n    tag_107:\n        /* \"#utility.yul\":5569:5593   */\n      tag_200\n        /* \"#utility.yul\":5587:5592   */\n      dup2\n        /* \"#utility.yul\":5569:5593   */\n      tag_98\n      jump\t// in\n    tag_200:\n        /* \"#utility.yul\":5564:5567   */\n      dup3\n        /* \"#utility.yul\":5557:5594   */\n      mstore\n        /* \"#utility.yul\":5482:5600   */\n      pop\n      pop\n      jump\t// out\n        /* \"#utility.yul\":5606:5828   */\n    tag_42:\n        /* \"#utility.yul\":5699:5703   */\n      0x00\n        /* \"#utility.yul\":5737:5739   */\n      0x20\n        /* \"#utility.yul\":5726:5735   */\n      dup3\n        /* \"#utility.yul\":5722:5740   */\n      add\n        /* \"#utility.yul\":5714:5740   */\n      swap1\n      pop\n        /* \"#utility.yul\":5750:5821   */\n      tag_202\n        /* \"#utility.yul\":5818:5819   */\n      0x00\n        /* \"#utility.yul\":5807:5816   */\n      dup4\n        /* \"#utility.yul\":5803:5820   */\n      add\n        /* \"#utility.yul\":5794:5800   */\n      dup5\n        /* \"#utility.yul\":5750:5821   */\n      tag_107\n      jump\t// in\n    tag_202:\n        /* \"#utility.yul\":5606:5828   */\n      swap3\n      swap2\n      pop\n      pop\n      jump\t// out\n        /* \"#utility.yul\":5834:6003   */\n    tag_108:\n        /* \"#utility.yul\":5918:5929   */\n      0x00\n        /* \"#utility.yul\":5952:5958   */\n      dup3\n        /* \"#utility.yul\":5947:5950   */\n      dup3\n        /* \"#utility.yul\":5940:5959   */\n      mstore\n        /* \"#utility.yul\":5992:5996   */\n      0x20\n        /* \"#utility.yul\":5987:5990   */\n      dup3\n        /* \"#utility.yul\":5983:5997   */\n      add\n        /* \"#utility.yul\":5968:5997   */\n      swap1\n      pop\n        /* \"#utility.yul\":5834:6003   */\n      swap3\n      swap2\n      pop\n      pop\n      jump\t// out\n        /* \"#utility.yul\":6009:6177   */\n    tag_109:\n        /* \"#utility.yul\":6149:6169   */\n      0x53656e6420657363726f7720616d6f756e740000000000000000000000000000\n        /* \"#utility.yul\":6145:6146   */\n      0x00\n        /* \"#utility.yul\":6137:6143   */\n      dup3\n        /* \"#utility.yul\":6133:6147   */\n      add\n        /* \"#utility.yul\":6126:6170   */\n      mstore\n        /* \"#utility.yul\":6009:6177   */\n      pop\n      jump\t// out\n        /* \"#utility.yul\":6183:6549   */\n    tag_110:\n        /* \"#utility.yul\":6325:6328   */\n      0x00\n        /* \"#utility.yul\":6346:6413   */\n      tag_206\n        /* \"#utility.yul\":6410:6412   */\n      0x12\n        /* \"#utility.yul\":6405:6408   */\n      dup4\n        /* \"#utility.yul\":6346:6413   */\n      tag_108\n      jump\t// in\n    tag_206:\n        /* \"#utility.yul\":6339:6413   */\n      swap2\n      pop\n        /* \"#utility.yul\":6422:6515   */\n      tag_207\n        /* \"#utility.yul\":6511:6514   */\n      dup3\n        /* \"#utility.yul\":6422:6515   */\n      tag_109\n      jump\t// in\n    tag_207:\n        /* \"#utility.yul\":6540:6542   */\n      0x20\n        /* \"#utility.yul\":6535:6538   */\n      dup3\n        /* \"#utility.yul\":6531:6543   */\n      add\n        /* \"#utility.yul\":6524:6543   */\n      swap1\n      pop\n        /* \"#utility.yul\":6183:6549   */\n      swap2\n      swap1\n      pop\n      jump\t// out\n        /* \"#utility.yul\":6555:6974   */\n    tag_46:\n        /* \"#utility.yul\":6721:6725   */\n      0x00\n        /* \"#utility.yul\":6759:6761   */\n      0x20\n        /* \"#utility.yul\":6748:6757   */\n      dup3\n        /* \"#utility.yul\":6744:6762   */\n      add\n        /* \"#utility.yul\":6736:6762   */\n      swap1\n      pop\n        /* \"#utility.yul\":6808:6817   */\n      dup2\n        /* \"#utility.yul\":6802:6806   */\n      dup2\n        /* \"#utility.yul\":6798:6818   */\n      sub\n        /* \"#utility.yul\":6794:6795   */\n      0x00\n        /* \"#utility.yul\":6783:6792   */\n      dup4\n        /* \"#utility.yul\":6779:6796   */\n      add\n        /* \"#utility.yul\":6772:6819   */\n      mstore\n        /* \"#utility.yul\":6836:6967   */\n      tag_209\n        /* \"#utility.yul\":6962:6966   */\n      dup2\n        /* \"#utility.yul\":6836:6967   */\n      tag_110\n      jump\t// in\n    tag_209:\n        /* \"#utility.yul\":6828:6967   */\n      swap1\n      pop\n        /* \"#utility.yul\":6555:6974   */\n      swap2\n      swap1\n      pop\n      jump\t// out\n        /* \"#utility.yul\":6980:7128   */\n    tag_111:\n        /* \"#utility.yul\":7078:7084   */\n      dup3\n        /* \"#utility.yul\":7073:7076   */\n      dup2\n        /* \"#utility.yul\":7068:7071   */\n      dup4\n        /* \"#utility.yul\":7055:7085   */\n      calldatacopy\n        /* \"#utility.yul\":7119:7120   */\n      0x00\n        /* \"#utility.yul\":7110:7116   */\n      dup4\n        /* \"#utility.yul\":7105:7108   */\n      dup4\n        /* \"#utility.yul\":7101:7117   */\n      add\n        /* \"#utility.yul\":7094:7121   */\n      mstore\n        /* \"#utility.yul\":6980:7128   */\n      pop\n      pop\n      pop\n      jump\t// out\n        /* \"#utility.yul\":7134:7236   */\n    tag_112:\n        /* \"#utility.yul\":7175:7181   */\n      0x00\n        /* \"#utility.yul\":7226:7228   */\n      0x1f\n        /* \"#utility.yul\":7222:7229   */\n      not\n        /* \"#utility.yul\":7217:7219   */\n      0x1f\n        /* \"#utility.yul\":7210:7215   */\n      dup4\n        /* \"#utility.yul\":7206:7220   */\n      add\n        /* \"#utility.yul\":7202:7230   */\n      and\n        /* \"#utility.yul\":7192:7230   */\n      swap1\n      pop\n        /* \"#utility.yul\":7134:7236   */\n      swap2\n      swap1\n      pop\n      jump\t// out\n        /* \"#utility.yul\":7266:7583   */\n    tag_113:\n        /* \"#utility.yul\":7364:7367   */\n      0x00\n        /* \"#utility.yul\":7385:7456   */\n      tag_213\n        /* \"#utility.yul\":7449:7455   */\n      dup4\n        /* \"#utility.yul\":7444:7447   */\n      dup6\n        /* \"#utility.yul\":7385:7456   */\n      tag_108\n      jump\t// in\n    tag_213:\n        /* \"#utility.yul\":7378:7456   */\n      swap4\n      pop\n        /* \"#utility.yul\":7466:7522   */\n      tag_214\n        /* \"#utility.yul\":7515:7521   */\n      dup4\n        /* \"#utility.yul\":7510:7513   */\n      dup6\n        /* \"#utility.yul\":7503:7508   */\n      dup5\n        /* \"#utility.yul\":7466:7522   */\n      tag_111\n      jump\t// in\n    tag_214:\n        /* \"#utility.yul\":7547:7576   */\n      tag_215\n        /* \"#utility.yul\":7569:7575   */\n      dup4\n        /* \"#utility.yul\":7547:7576   */\n      tag_112\n      jump\t// in\n    tag_215:\n        /* \"#utility.yul\":7542:7545   */\n      dup5\n        /* \"#utility.yul\":7538:7577   */\n      add\n        /* \"#utility.yul\":7531:7577   */\n      swap1\n      pop\n        /* \"#utility.yul\":7266:7583   */\n      swap4\n      swap3\n      pop\n      pop\n      pop\n      jump\t// out\n        /* \"#utility.yul\":7589:7922   */\n    tag_48:\n        /* \"#utility.yul\":7712:7716   */\n      0x00\n        /* \"#utility.yul\":7750:7752   */\n      0x20\n        /* \"#utility.yul\":7739:7748   */\n      dup3\n        /* \"#utility.yul\":7735:7753   */\n      add\n        /* \"#utility.yul\":7727:7753   */\n      swap1\n      pop\n        /* \"#utility.yul\":7799:7808   */\n      dup2\n        /* \"#utility.yul\":7793:7797   */\n      dup2\n        /* \"#utility.yul\":7789:7809   */\n      sub\n        /* \"#utility.yul\":7785:7786   */\n      0x00\n        /* \"#utility.yul\":7774:7783   */\n      dup4\n        /* \"#utility.yul\":7770:7787   */\n      add\n        /* \"#utility.yul\":7763:7810   */\n      mstore\n        /* \"#utility.yul\":7827:7915   */\n      tag_217\n        /* \"#utility.yul\":7910:7914   */\n      dup2\n        /* \"#utility.yul\":7901:7907   */\n      dup5\n        /* \"#utility.yul\":7893:7899   */\n      dup7\n        /* \"#utility.yul\":7827:7915   */\n      tag_113\n      jump\t// in\n    tag_217:\n        /* \"#utility.yul\":7819:7915   */\n      swap1\n      pop\n        /* \"#utility.yul\":7589:7922   */\n      swap4\n      swap3\n      pop\n      pop\n      pop\n      jump\t// out\n        /* \"#utility.yul\":7928:8096   */\n    tag_114:\n        /* \"#utility.yul\":8068:8088   */\n      0x416c726561647920726567697374657265640000000000000000000000000000\n        /* \"#utility.yul\":8064:8065   */\n      0x00\n        /* \"#utility.yul\":8056:8062   */\n      dup3\n        /* \"#utility.yul\":8052:8066   */\n      add\n        /* \"#utility.yul\":8045:8089   */\n      mstore\n        /* \"#utility.yul\":7928:8096   */\n      pop\n      jump\t// out\n        /* \"#utility.yul\":8102:8468   */\n    tag_115:\n        /* \"#utility.yul\":8244:8247   */\n      0x00\n        /* \"#utility.yul\":8265:8332   */\n      tag_220\n        /* \"#utility.yul\":8329:8331   */\n      0x12\n        /* \"#utility.yul\":8324:8327   */\n      dup4\n        /* \"#utility.yul\":8265:8332   */\n      tag_108\n      jump\t// in\n    tag_220:\n        /* \"#utility.yul\":8258:8332   */\n      swap2\n      pop\n        /* \"#utility.yul\":8341:8434   */\n      tag_221\n        /* \"#utility.yul\":8430:8433   */\n      dup3\n        /* \"#utility.yul\":8341:8434   */\n      tag_114\n      jump\t// in\n    tag_221:\n        /* \"#utility.yul\":8459:8461   */\n      0x20\n        /* \"#utility.yul\":8454:8457   */\n      dup3\n        /* \"#utility.yul\":8450:8462   */\n      add\n        /* \"#utility.yul\":8443:8462   */\n      swap1\n      pop\n        /* \"#utility.yul\":8102:8468   */\n      swap2\n      swap1\n      pop\n      jump\t// out\n        /* \"#utility.yul\":8474:8893   */\n    tag_51:\n        /* \"#utility.yul\":8640:8644   */\n      0x00\n        /* \"#utility.yul\":8678:8680   */\n      0x20\n        /* \"#utility.yul\":8667:8676   */\n      dup3\n        /* \"#utility.yul\":8663:8681   */\n      add\n        /* \"#utility.yul\":8655:8681   */\n      swap1\n      pop\n        /* \"#utility.yul\":8727:8736   */\n      dup2\n        /* \"#utility.yul\":8721:8725   */\n      dup2\n        /* \"#utility.yul\":8717:8737   */\n      sub\n        /* \"#utility.yul\":8713:8714   */\n      0x00\n        /* \"#utility.yul\":8702:8711   */\n      dup4\n        /* \"#utility.yul\":8698:8715   */\n      add\n        /* \"#utility.yul\":8691:8738   */\n      mstore\n        /* \"#utility.yul\":8755:8886   */\n      tag_223\n        /* \"#utility.yul\":8881:8885   */\n      dup2\n        /* \"#utility.yul\":8755:8886   */\n      tag_115\n      jump\t// in\n    tag_223:\n        /* \"#utility.yul\":8747:8886   */\n      swap1\n      pop\n        /* \"#utility.yul\":8474:8893   */\n      swap2\n      swap1\n      pop\n      jump\t// out\n        /* \"#utility.yul\":8899:9342   */\n    tag_53:\n        /* \"#utility.yul\":9050:9054   */\n      0x00\n        /* \"#utility.yul\":9088:9090   */\n      0x40\n        /* \"#utility.yul\":9077:9086   */\n      dup3\n        /* \"#utility.yul\":9073:9091   */\n      add\n        /* \"#utility.yul\":9065:9091   */\n      swap1\n      pop\n        /* \"#utility.yul\":9137:9146   */\n      dup2\n        /* \"#utility.yul\":9131:9135   */\n      dup2\n        /* \"#utility.yul\":9127:9147   */\n      sub\n        /* \"#utility.yul\":9123:9124   */\n      0x00\n        /* \"#utility.yul\":9112:9121   */\n      dup4\n        /* \"#utility.yul\":9108:9125   */\n      add\n        /* \"#utility.yul\":9101:9148   */\n      mstore\n        /* \"#utility.yul\":9165:9253   */\n      tag_225\n        /* \"#utility.yul\":9248:9252   */\n      dup2\n        /* \"#utility.yul\":9239:9245   */\n      dup6\n        /* \"#utility.yul\":9231:9237   */\n      dup8\n        /* \"#utility.yul\":9165:9253   */\n      tag_113\n      jump\t// in\n    tag_225:\n        /* \"#utility.yul\":9157:9253   */\n      swap1\n      pop\n        /* \"#utility.yul\":9263:9335   */\n      tag_226\n        /* \"#utility.yul\":9331:9333   */\n      0x20\n        /* \"#utility.yul\":9320:9329   */\n      dup4\n        /* \"#utility.yul\":9316:9334   */\n      add\n        /* \"#utility.yul\":9307:9313   */\n      dup5\n        /* \"#utility.yul\":9263:9335   */\n      tag_102\n      jump\t// in\n    tag_226:\n        /* \"#utility.yul\":8899:9342   */\n      swap5\n      swap4\n      pop\n      pop\n      pop\n      pop\n      jump\t// out\n        /* \"#utility.yul\":9348:9519   */\n    tag_116:\n        /* \"#utility.yul\":9488:9511   */\n      0x466c69676874206e6f7420726567697374657265640000000000000000000000\n        /* \"#utility.yul\":9484:9485   */\n      0x00\n        /* \"#utility.yul\":9476:9482   */\n      dup3\n        /* \"#utility.yul\":9472:9486   */\n      add\n        /* \"#utility.yul\":9465:9512   */\n      mstore\n        /* \"#utility.yul\":9348:9519   */\n      pop\n      jump\t// out\n        /* \"#utility.yul\":9525:9891   */\n    tag_117:\n        /* \"#utility.yul\":9667:9670   */\n      0x00\n        /* \"#utility.yul\":9688:9755   */\n      tag_229\n        /* \"#utility.yul\":9752:9754   */\n      0x15\n        /* \"#utility.yul\":9747:9750   */\n      dup4\n        /* \"#utility.yul\":9688:9755   */\n      tag_108\n      jump\t// in\n    tag_229:\n        /* \"#utility.yul\":9681:9755   */\n      swap2\n      pop\n        /* \"#utility.yul\":9764:9857   */\n      tag_230\n        /* \"#utility.yul\":9853:9856   */\n      dup3\n        /* \"#utility.yul\":9764:9857   */\n      tag_116\n      jump\t// in\n    tag_230:\n        /* \"#utility.yul\":9882:9884   */\n      0x20\n        /* \"#utility.yul\":9877:9880   */\n      dup3\n        /* \"#utility.yul\":9873:9885   */\n      add\n        /* \"#utility.yul\":9866:9885   */\n      swap1\n      pop\n        /* \"#utility.yul\":9525:9891   */\n      swap2\n      swap1\n      pop\n      jump\t// out\n        /* \"#utility.yul\":9897:10316   */\n    tag_58:\n        /* \"#utility.yul\":10063:10067   */\n      0x00\n        /* \"#utility.yul\":10101:10103   */\n      0x20\n        /* \"#utility.yul\":10090:10099   */\n      dup3\n        /* \"#utility.yul\":10086:10104   */\n      add\n        /* \"#utility.yul\":10078:10104   */\n      swap1\n      pop\n        /* \"#utility.yul\":10150:10159   */\n      dup2\n        /* \"#utility.yul\":10144:10148   */\n      dup2\n        /* \"#utility.yul\":10140:10160   */\n      sub\n        /* \"#utility.yul\":10136:10137   */\n      0x00\n        /* \"#utility.yul\":10125:10134   */\n      dup4\n        /* \"#utility.yul\":10121:10138   */\n      add\n        /* \"#utility.yul\":10114:10161   */\n      mstore\n        /* \"#utility.yul\":10178:10309   */\n      tag_232\n        /* \"#utility.yul\":10304:10308   */\n      dup2\n        /* \"#utility.yul\":10178:10309   */\n      tag_117\n      jump\t// in\n    tag_232:\n        /* \"#utility.yul\":10170:10309   */\n      swap1\n      pop\n        /* \"#utility.yul\":9897:10316   */\n      swap2\n      swap1\n      pop\n      jump\t// out\n        /* \"#utility.yul\":10322:10491   */\n    tag_118:\n        /* \"#utility.yul\":10462:10483   */\n      0x416c726561647920636f6d70656e736174656400000000000000000000000000\n        /* \"#utility.yul\":10458:10459   */\n      0x00\n        /* \"#utility.yul\":10450:10456   */\n      dup3\n        /* \"#utility.yul\":10446:10460   */\n      add\n        /* \"#utility.yul\":10439:10484   */\n      mstore\n        /* \"#utility.yul\":10322:10491   */\n      pop\n      jump\t// out\n        /* \"#utility.yul\":10497:10863   */\n    tag_119:\n        /* \"#utility.yul\":10639:10642   */\n      0x00\n        /* \"#utility.yul\":10660:10727   */\n      tag_235\n        /* \"#utility.yul\":10724:10726   */\n      0x13\n        /* \"#utility.yul\":10719:10722   */\n      dup4\n        /* \"#utility.yul\":10660:10727   */\n      tag_108\n      jump\t// in\n    tag_235:\n        /* \"#utility.yul\":10653:10727   */\n      swap2\n      pop\n        /* \"#utility.yul\":10736:10829   */\n      tag_236\n        /* \"#utility.yul\":10825:10828   */\n      dup3\n        /* \"#utility.yul\":10736:10829   */\n      tag_118\n      jump\t// in\n    tag_236:\n        /* \"#utility.yul\":10854:10856   */\n      0x20\n        /* \"#utility.yul\":10849:10852   */\n      dup3\n        /* \"#utility.yul\":10845:10857   */\n      add\n        /* \"#utility.yul\":10838:10857   */\n      swap1\n      pop\n        /* \"#utility.yul\":10497:10863   */\n      swap2\n      swap1\n      pop\n      jump\t// out\n        /* \"#utility.yul\":10869:11288   */\n    tag_61:\n        /* \"#utility.yul\":11035:11039   */\n      0x00\n        /* \"#utility.yul\":11073:11075   */\n      0x20\n        /* \"#utility.yul\":11062:11071   */\n      dup3\n        /* \"#utility.yul\":11058:11076   */\n      add\n        /* \"#utility.yul\":11050:11076   */\n      swap1\n      pop\n        /* \"#utility.yul\":11122:11131   */\n      dup2\n        /* \"#utility.yul\":11116:11120   */\n      dup2\n        /* \"#utility.yul\":11112:11132   */\n      sub\n        /* \"#utility.yul\":11108:11109   */\n      0x00\n        /* \"#utility.yul\":11097:11106   */\n      dup4\n        /* \"#utility.yul\":11093:11110   */\n      add\n        /* \"#utility.yul\":11086:11133   */\n      mstore\n        /* \"#utility.yul\":11150:11281   */\n      tag_238\n        /* \"#utility.yul\":11276:11280   */\n      dup2\n        /* \"#utility.yul\":11150:11281   */\n      tag_119\n      jump\t// in\n    tag_238:\n        /* \"#utility.yul\":11142:11281   */\n      swap1\n      pop\n        /* \"#utility.yul\":10869:11288   */\n      swap2\n      swap1\n      pop\n      jump\t// out\n        /* \"#utility.yul\":11294:11462   */\n    tag_120:\n        /* \"#utility.yul\":11434:11454   */\n      0x466c69676874206e6f742064656c617965640000000000000000000000000000\n        /* \"#utility.yul\":11430:11431   */\n      0x00\n        /* \"#utility.yul\":11422:11428   */\n      dup3\n        /* \"#utility.yul\":11418:11432   */\n      add\n        /* \"#utility.yul\":11411:11455   */\n      mstore\n        /* \"#utility.yul\":11294:11462   */\n      pop\n      jump\t// out\n        /* \"#utility.yul\":11468:11834   */\n    tag_121:\n        /* \"#utility.yul\":11610:11613   */\n      0x00\n        /* \"#utility.yul\":11631:11698   */\n      tag_241\n        /* \"#utility.yul\":11695:11697   */\n      0x12\n        /* \"#utility.yul\":11690:11693   */\n      dup4\n        /* \"#utility.yul\":11631:11698   */\n      tag_108\n      jump\t// in\n    tag_241:\n        /* \"#utility.yul\":11624:11698   */\n      swap2\n      pop\n        /* \"#utility.yul\":11707:11800   */\n      tag_242\n        /* \"#utility.yul\":11796:11799   */\n      dup3\n        /* \"#utility.yul\":11707:11800   */\n      tag_120\n      jump\t// in\n    tag_242:\n        /* \"#utility.yul\":11825:11827   */\n      0x20\n        /* \"#utility.yul\":11820:11823   */\n      dup3\n        /* \"#utility.yul\":11816:11828   */\n      add\n        /* \"#utility.yul\":11809:11828   */\n      swap1\n      pop\n        /* \"#utility.yul\":11468:11834   */\n      swap2\n      swap1\n      pop\n      jump\t// out\n        /* \"#utility.yul\":11840:12259   */\n    tag_64:\n        /* \"#utility.yul\":12006:12010   */\n      0x00\n        /* \"#utility.yul\":12044:12046   */\n      0x20\n        /* \"#utility.yul\":12033:12042   */\n      dup3\n        /* \"#utility.yul\":12029:12047   */\n      add\n        /* \"#utility.yul\":12021:12047   */\n      swap1\n      pop\n        /* \"#utility.yul\":12093:12102   */\n      dup2\n        /* \"#utility.yul\":12087:12091   */\n      dup2\n        /* \"#utility.yul\":12083:12103   */\n      sub\n        /* \"#utility.yul\":12079:12080   */\n      0x00\n        /* \"#utility.yul\":12068:12077   */\n      dup4\n        /* \"#utility.yul\":12064:12081   */\n      add\n        /* \"#utility.yul\":12057:12104   */\n      mstore\n        /* \"#utility.yul\":12121:12252   */\n      tag_244\n        /* \"#utility.yul\":12247:12251   */\n      dup2\n        /* \"#utility.yul\":12121:12252   */\n      tag_121\n      jump\t// in\n    tag_244:\n        /* \"#utility.yul\":12113:12252   */\n      swap1\n      pop\n        /* \"#utility.yul\":11840:12259   */\n      swap2\n      swap1\n      pop\n      jump\t// out\n        /* \"#utility.yul\":12265:12445   */\n    tag_122:\n        /* \"#utility.yul\":12313:12390   */\n      0x4e487b7100000000000000000000000000000000000000000000000000000000\n        /* \"#utility.yul\":12310:12311   */\n      0x00\n        /* \"#utility.yul\":12303:12391   */\n      mstore\n        /* \"#utility.yul\":12410:12414   */\n      0x11\n        /* \"#utility.yul\":12407:12408   */\n      0x04\n        /* \"#utility.yul\":12400:12415   */\n      mstore\n        /* \"#utility.yul\":12434:12438   */\n      0x24\n        /* \"#utility.yul\":12431:12432   */\n      0x00\n        /* \"#utility.yul\":12424:12439   */\n      revert\n        /* \"#utility.yul\":12451:12861   */\n    tag_66:\n        /* \"#utility.yul\":12491:12498   */\n      0x00\n        /* \"#utility.yul\":12514:12534   */\n      tag_247\n        /* \"#utility.yul\":12532:12533   */\n      dup3\n        /* \"#utility.yul\":12514:12534   */\n      tag_101\n      jump\t// in\n    tag_247:\n        /* \"#utility.yul\":12509:12534   */\n      swap2\n      pop\n        /* \"#utility.yul\":12548:12568   */\n      tag_248\n        /* \"#utility.yul\":12566:12567   */\n      dup4\n        /* \"#utility.yul\":12548:12568   */\n      tag_101\n      jump\t// in\n    tag_248:\n        /* \"#utility.yul\":12543:12568   */\n      swap3\n      pop\n        /* \"#utility.yul\":12603:12604   */\n      dup3\n        /* \"#utility.yul\":12600:12601   */\n      dup3\n        /* \"#utility.yul\":12596:12605   */\n      mul\n        /* \"#utility.yul\":12625:12655   */\n      tag_249\n        /* \"#utility.yul\":12643:12654   */\n      dup2\n        /* \"#utility.yul\":12625:12655   */\n      tag_101\n      jump\t// in\n    tag_249:\n        /* \"#utility.yul\":12614:12655   */\n      swap2\n      pop\n        /* \"#utility.yul\":12804:12805   */\n      dup3\n        /* \"#utility.yul\":12795:12802   */\n      dup3\n        /* \"#utility.yul\":12791:12806   */\n      div\n        /* \"#utility.yul\":12788:12789   */\n      dup5\n        /* \"#utility.yul\":12785:12807   */\n      eq\n        /* \"#utility.yul\":12765:12766   */\n      dup4\n        /* \"#utility.yul\":12758:12767   */\n      iszero\n        /* \"#utility.yul\":12738:12821   */\n      or\n        /* \"#utility.yul\":12715:12854   */\n      tag_250\n      jumpi\n        /* \"#utility.yul\":12834:12852   */\n      tag_251\n      tag_122\n      jump\t// in\n    tag_251:\n        /* \"#utility.yul\":12715:12854   */\n    tag_250:\n        /* \"#utility.yul\":12499:12861   */\n      pop\n        /* \"#utility.yul\":12451:12861   */\n      swap3\n      swap2\n      pop\n      pop\n      jump\t// out\n        /* \"#utility.yul\":12867:13042   */\n    tag_123:\n        /* \"#utility.yul\":13007:13034   */\n      0x436f6e7472616374206e65656473206d6f72652066756e647300000000000000\n        /* \"#utility.yul\":13003:13004   */\n      0x00\n        /* \"#utility.yul\":12995:13001   */\n      dup3\n        /* \"#utility.yul\":12991:13005   */\n      add\n        /* \"#utility.yul\":12984:13035   */\n      mstore\n        /* \"#utility.yul\":12867:13042   */\n      pop\n      jump\t// out\n        /* \"#utility.yul\":13048:13414   */\n    tag_124:\n        /* \"#utility.yul\":13190:13193   */\n      0x00\n        /* \"#utility.yul\":13211:13278   */\n      tag_254\n        /* \"#utility.yul\":13275:13277   */\n      0x19\n        /* \"#utility.yul\":13270:13273   */\n      dup4\n        /* \"#utility.yul\":13211:13278   */\n      tag_108\n      jump\t// in\n    tag_254:\n        /* \"#utility.yul\":13204:13278   */\n      swap2\n      pop\n        /* \"#utility.yul\":13287:13380   */\n      tag_255\n        /* \"#utility.yul\":13376:13379   */\n      dup3\n        /* \"#utility.yul\":13287:13380   */\n      tag_123\n      jump\t// in\n    tag_255:\n        /* \"#utility.yul\":13405:13407   */\n      0x20\n        /* \"#utility.yul\":13400:13403   */\n      dup3\n        /* \"#utility.yul\":13396:13408   */\n      add\n        /* \"#utility.yul\":13389:13408   */\n      swap1\n      pop\n        /* \"#utility.yul\":13048:13414   */\n      swap2\n      swap1\n      pop\n      jump\t// out\n        /* \"#utility.yul\":13420:13839   */\n    tag_69:\n        /* \"#utility.yul\":13586:13590   */\n      0x00\n        /* \"#utility.yul\":13624:13626   */\n      0x20\n        /* \"#utility.yul\":13613:13622   */\n      dup3\n        /* \"#utility.yul\":13609:13627   */\n      add\n        /* \"#utility.yul\":13601:13627   */\n      swap1\n      pop\n        /* \"#utility.yul\":13673:13682   */\n      dup2\n        /* \"#utility.yul\":13667:13671   */\n      dup2\n        /* \"#utility.yul\":13663:13683   */\n      sub\n        /* \"#utility.yul\":13659:13660   */\n      0x00\n        /* \"#utility.yul\":13648:13657   */\n      dup4\n        /* \"#utility.yul\":13644:13661   */\n      add\n        /* \"#utility.yul\":13637:13684   */\n      mstore\n        /* \"#utility.yul\":13701:13832   */\n      tag_257\n        /* \"#utility.yul\":13827:13831   */\n      dup2\n        /* \"#utility.yul\":13701:13832   */\n      tag_124\n      jump\t// in\n    tag_257:\n        /* \"#utility.yul\":13693:13832   */\n      swap1\n      pop\n        /* \"#utility.yul\":13420:13839   */\n      swap2\n      swap1\n      pop\n      jump\t// out\n        /* \"#utility.yul\":13845:13992   */\n    tag_125:\n        /* \"#utility.yul\":13946:13957   */\n      0x00\n        /* \"#utility.yul\":13983:13986   */\n      dup2\n        /* \"#utility.yul\":13968:13986   */\n      swap1\n      pop\n        /* \"#utility.yul\":13845:13992   */\n      swap3\n      swap2\n      pop\n      pop\n      jump\t// out\n        /* \"#utility.yul\":13998:14112   */\n    tag_126:\n      pop\n      jump\t// out\n        /* \"#utility.yul\":14118:14516   */\n    tag_127:\n        /* \"#utility.yul\":14277:14280   */\n      0x00\n        /* \"#utility.yul\":14298:14381   */\n      tag_261\n        /* \"#utility.yul\":14379:14380   */\n      0x00\n        /* \"#utility.yul\":14374:14377   */\n      dup4\n        /* \"#utility.yul\":14298:14381   */\n      tag_125\n      jump\t// in\n    tag_261:\n        /* \"#utility.yul\":14291:14381   */\n      swap2\n      pop\n        /* \"#utility.yul\":14390:14483   */\n      tag_262\n        /* \"#utility.yul\":14479:14482   */\n      dup3\n        /* \"#utility.yul\":14390:14483   */\n      tag_126\n      jump\t// in\n    tag_262:\n        /* \"#utility.yul\":14508:14509   */\n      0x00\n        /* \"#utility.yul\":14503:14506   */\n      dup3\n        /* \"#utility.yul\":14499:14510   */\n      add\n        /* \"#utility.yul\":14492:14510   */\n      swap1\n      pop\n        /* \"#utility.yul\":14118:14516   */\n      swap2\n      swap1\n      pop\n      jump\t// out\n        /* \"#utility.yul\":14522:14901   */\n    tag_71:\n        /* \"#utility.yul\":14706:14709   */\n      0x00\n        /* \"#utility.yul\":14728:14875   */\n      tag_264\n        /* \"#utility.yul\":14871:14874   */\n      dup3\n        /* \"#utility.yul\":14728:14875   */\n      tag_127\n      jump\t// in\n    tag_264:\n        /* \"#utility.yul\":14721:14875   */\n      swap2\n      pop\n        /* \"#utility.yul\":14892:14895   */\n      dup2\n        /* \"#utility.yul\":14885:14895   */\n      swap1\n      pop\n        /* \"#utility.yul\":14522:14901   */\n      swap2\n      swap1\n      pop\n      jump\t// out\n        /* \"#utility.yul\":14907:15072   */\n    tag_128:\n        /* \"#utility.yul\":15047:15064   */\n      0x5472616e73666572206661696c65640000000000000000000000000000000000\n        /* \"#utility.yul\":15043:15044   */\n      0x00\n        /* \"#utility.yul\":15035:15041   */\n      dup3\n        /* \"#utility.yul\":15031:15045   */\n      add\n        /* \"#utility.yul\":15024:15065   */\n      mstore\n        /* \"#utility.yul\":14907:15072   */\n      pop\n      jump\t// out\n        /* \"#utility.yul\":15078:15444   */\n    tag_129:\n        /* \"#utility.yul\":15220:15223   */\n      0x00\n        /* \"#utility.yul\":15241:15308   */\n      tag_267\n        /* \"#utility.yul\":15305:15307   */\n      0x0f\n        /* \"#utility.yul\":15300:15303   */\n      dup4\n        /* \"#utility.yul\":15241:15308   */\n      tag_108\n      jump\t// in\n    tag_267:\n        /* \"#utility.yul\":15234:15308   */\n      swap2\n      pop\n        /* \"#utility.yul\":15317:15410   */\n      tag_268\n        /* \"#utility.yul\":15406:15409   */\n      dup3\n        /* \"#utility.yul\":15317:15410   */\n      tag_128\n      jump\t// in\n    tag_268:\n        /* \"#utility.yul\":15435:15437   */\n      0x20\n        /* \"#utility.yul\":15430:15433   */\n      dup3\n        /* \"#utility.yul\":15426:15438   */\n      add\n        /* \"#utility.yul\":15419:15438   */\n      swap1\n      pop\n        /* \"#utility.yul\":15078:15444   */\n      swap2\n      swap1\n      pop\n      jump\t// out\n        /* \"#utility.yul\":15450:15869   */\n    tag_77:\n        /* \"#utility.yul\":15616:15620   */\n      0x00\n        /* \"#utility.yul\":15654:15656   */\n      0x20\n        /* \"#utility.yul\":15643:15652   */\n      dup3\n        /* \"#utility.yul\":15639:15657   */\n      add\n        /* \"#utility.yul\":15631:15657   */\n      swap1\n      pop\n        /* \"#utility.yul\":15703:15712   */\n      dup2\n        /* \"#utility.yul\":15697:15701   */\n      dup2\n        /* \"#utility.yul\":15693:15713   */\n      sub\n        /* \"#utility.yul\":15689:15690   */\n      0x00\n        /* \"#utility.yul\":15678:15687   */\n      dup4\n        /* \"#utility.yul\":15674:15691   */\n      add\n        /* \"#utility.yul\":15667:15714   */\n      mstore\n        /* \"#utility.yul\":15731:15862   */\n      tag_270\n        /* \"#utility.yul\":15857:15861   */\n      dup2\n        /* \"#utility.yul\":15731:15862   */\n      tag_129\n      jump\t// in\n    tag_270:\n        /* \"#utility.yul\":15723:15862   */\n      swap1\n      pop\n        /* \"#utility.yul\":15450:15869   */\n      swap2\n      swap1\n      pop\n      jump\t// out\n        /* \"#utility.yul\":15875:16035   */\n    tag_130:\n        /* \"#utility.yul\":16015:16027   */\n      0x4f6e6c792061646d696e00000000000000000000000000000000000000000000\n        /* \"#utility.yul\":16011:16012   */\n      0x00\n        /* \"#utility.yul\":16003:16009   */\n      dup3\n        /* \"#utility.yul\":15999:16013   */\n      add\n        /* \"#utility.yul\":15992:16028   */\n      mstore\n        /* \"#utility.yul\":15875:16035   */\n      pop\n      jump\t// out\n        /* \"#utility.yul\":16041:16407   */\n    tag_131:\n        /* \"#utility.yul\":16183:16186   */\n      0x00\n        /* \"#utility.yul\":16204:16271   */\n      tag_273\n        /* \"#utility.yul\":16268:16270   */\n      0x0a\n        /* \"#utility.yul\":16263:16266   */\n      dup4\n        /* \"#utility.yul\":16204:16271   */\n      tag_108\n      jump\t// in\n    tag_273:\n        /* \"#utility.yul\":16197:16271   */\n      swap2\n      pop\n        /* \"#utility.yul\":16280:16373   */\n      tag_274\n        /* \"#utility.yul\":16369:16372   */\n      dup3\n        /* \"#utility.yul\":16280:16373   */\n      tag_130\n      jump\t// in\n    tag_274:\n        /* \"#utility.yul\":16398:16400   */\n      0x20\n        /* \"#utility.yul\":16393:16396   */\n      dup3\n        /* \"#utility.yul\":16389:16401   */\n      add\n        /* \"#utility.yul\":16382:16401   */\n      swap1\n      pop\n        /* \"#utility.yul\":16041:16407   */\n      swap2\n      swap1\n      pop\n      jump\t// out\n        /* \"#utility.yul\":16413:16832   */\n    tag_82:\n        /* \"#utility.yul\":16579:16583   */\n      0x00\n        /* \"#utility.yul\":16617:16619   */\n      0x20\n        /* \"#utility.yul\":16606:16615   */\n      dup3\n        /* \"#utility.yul\":16602:16620   */\n      add\n        /* \"#utility.yul\":16594:16620   */\n      swap1\n      pop\n        /* \"#utility.yul\":16666:16675   */\n      dup2\n        /* \"#utility.yul\":16660:16664   */\n      dup2\n        /* \"#utility.yul\":16656:16676   */\n      sub\n        /* \"#utility.yul\":16652:16653   */\n      0x00\n        /* \"#utility.yul\":16641:16650   */\n      dup4\n        /* \"#utility.yul\":16637:16654   */\n      add\n        /* \"#utility.yul\":16630:16677   */\n      mstore\n        /* \"#utility.yul\":16694:16825   */\n      tag_276\n        /* \"#utility.yul\":16820:16824   */\n      dup2\n        /* \"#utility.yul\":16694:16825   */\n      tag_131\n      jump\t// in\n    tag_276:\n        /* \"#utility.yul\":16686:16825   */\n      swap1\n      pop\n        /* \"#utility.yul\":16413:16832   */\n      swap2\n      swap1\n      pop\n      jump\t// out\n        /* \"#utility.yul\":16838:17269   */\n    tag_86:\n        /* \"#utility.yul\":16983:16987   */\n      0x00\n        /* \"#utility.yul\":17021:17023   */\n      0x40\n        /* \"#utility.yul\":17010:17019   */\n      dup3\n        /* \"#utility.yul\":17006:17024   */\n      add\n        /* \"#utility.yul\":16998:17024   */\n      swap1\n      pop\n        /* \"#utility.yul\":17070:17079   */\n      dup2\n        /* \"#utility.yul\":17064:17068   */\n      dup2\n        /* \"#utility.yul\":17060:17080   */\n      sub\n        /* \"#utility.yul\":17056:17057   */\n      0x00\n        /* \"#utility.yul\":17045:17054   */\n      dup4\n        /* \"#utility.yul\":17041:17058   */\n      add\n        /* \"#utility.yul\":17034:17081   */\n      mstore\n        /* \"#utility.yul\":17098:17186   */\n      tag_278\n        /* \"#utility.yul\":17181:17185   */\n      dup2\n        /* \"#utility.yul\":17172:17178   */\n      dup6\n        /* \"#utility.yul\":17164:17170   */\n      dup8\n        /* \"#utility.yul\":17098:17186   */\n      tag_113\n      jump\t// in\n    tag_278:\n        /* \"#utility.yul\":17090:17186   */\n      swap1\n      pop\n        /* \"#utility.yul\":17196:17262   */\n      tag_279\n        /* \"#utility.yul\":17258:17260   */\n      0x20\n        /* \"#utility.yul\":17247:17256   */\n      dup4\n        /* \"#utility.yul\":17243:17261   */\n      add\n        /* \"#utility.yul\":17234:17240   */\n      dup5\n        /* \"#utility.yul\":17196:17262   */\n      tag_104\n      jump\t// in\n    tag_279:\n        /* \"#utility.yul\":16838:17269   */\n      swap5\n      swap4\n      pop\n      pop\n      pop\n      pop\n      jump\t// out\n\n    auxdata: 0xa26469706673582212204973e824f6fd79d953bfb6a1e6cd4141454f5bcaf7b52c082550a968beae42b164736f6c634300081f0033\n}\n",
				"bytecode": {
					"linkReferences": {},
					"object": "6080604052348015600f57600080fd5b50336000806101000a81548173ffffffffffffffffffffffffffffffffffffffff021916908373ffffffffffffffffffffffffffffffffffffffff1602179055506110128061005f6000396000f3fe6080604052600436106100595760003560e01c80633f8dd5451461006557806390e0378f1461008157806392256c0e146100aa578063c5ece182146100e9578063ee48821314610126578063f851a4401461014f57610060565b3661006057005b600080fd5b61007f600480360381019061007a9190610855565b61017a565b005b34801561008d57600080fd5b506100a860048036038101906100a39190610855565b61032b565b005b3480156100b657600080fd5b506100d160048036038101906100cc9190610936565b61062a565b6040516100e0939291906109aa565b60405180910390f35b3480156100f557600080fd5b50610110600480360381019061010b91906109e1565b61067b565b60405161011d9190610a0e565b60405180910390f35b34801561013257600080fd5b5061014d60048036038101906101489190610a55565b61069b565b005b34801561015b57600080fd5b506101646107c2565b6040516101719190610ac4565b60405180910390f35b600034116101bd576040517f08c379a00000000000000000000000000000000000000000000000000000000081526004016101b490610b3c565b60405180910390fd5b600082826040516020016101d2929190610ba9565b60405160208183030381529060405280519060200120905060006001600083815260200190815260200160002060003373ffffffffffffffffffffffffffffffffffffffff1673ffffffffffffffffffffffffffffffffffffffff16815260200190815260200160002090508060010160009054906101000a900460ff1615610290576040517f08c379a000000000000000000000000000000000000000000000000000000000815260040161028790610c19565b60405180910390fd5b34816000018190555060018160010160006101000a81548160ff02191690831515021790555060008160010160016101000a81548160ff0219169083151502179055503373ffffffffffffffffffffffffffffffffffffffff167fa59671bc0b480bd60b5b4405cbd50cadea668f34d55e2b19da00c04acd8fed6085853460405161031d93929190610c39565b60405180910390a250505050565b60008282604051602001610340929190610ba9565b60405160208183030381529060405280519060200120905060006001600083815260200190815260200160002060003373ffffffffffffffffffffffffffffffffffffffff1673ffffffffffffffffffffffffffffffffffffffff16815260200190815260200160002090508060010160009054906101000a900460ff166103fd576040517f08c379a00000000000000000000000000000000000000000000000000000000081526004016103f490610cb7565b60405180910390fd5b8060010160019054906101000a900460ff161561044f576040517f08c379a000000000000000000000000000000000000000000000000000000000815260040161044690610d23565b60405180910390fd5b6002600083815260200190815260200160002060009054906101000a900460ff166104af576040517f08c379a00000000000000000000000000000000000000000000000000000000081526004016104a690610d8f565b60405180910390fd5b6000600282600001546104c29190610dde565b905080471015610507576040517f08c379a00000000000000000000000000000000000000000000000000000000081526004016104fe90610e6c565b60405180910390fd5b60018260010160016101000a81548160ff02191690831515021790555060003373ffffffffffffffffffffffffffffffffffffffff168260405161054a90610ebd565b60006040518083038185875af1925050503d8060008114610587576040519150601f19603f3d011682016040523d82523d6000602084013e61058c565b606091505b50509050806105d0576040517f08c379a00000000000000000000000000000000000000000000000000000000081526004016105c790610f1e565b60405180910390fd5b3373ffffffffffffffffffffffffffffffffffffffff167fded485c2513e9aa2c43424b680757f4e28b95773577b2c78f5083c50c528dd8c87878560405161061a93929190610c39565b60405180910390a2505050505050565b6001602052816000526040600020602052806000526040600020600091509150508060000154908060010160009054906101000a900460ff16908060010160019054906101000a900460ff16905083565b60026020528060005260406000206000915054906101000a900460ff1681565b60008054906101000a900473ffffffffffffffffffffffffffffffffffffffff1673ffffffffffffffffffffffffffffffffffffffff163373ffffffffffffffffffffffffffffffffffffffff1614610729576040517f08c379a000000000000000000000000000000000000000000000000000000000815260040161072090610f8a565b60405180910390fd5b6000838360405160200161073e929190610ba9565b604051602081830303815290604052805190602001209050816002600083815260200190815260200160002060006101000a81548160ff0219169083151502179055507ff473421c357e27f83e2a01e6aea4554e408532c925812801e901592ff7a05c188484846040516107b493929190610faa565b60405180910390a150505050565b60008054906101000a900473ffffffffffffffffffffffffffffffffffffffff1681565b600080fd5b600080fd5b600080fd5b600080fd5b600080fd5b60008083601f840112610815576108146107f0565b5b8235905067ffffffffffffffff811115610832576108316107f5565b5b60208301915083600182028301111561084e5761084d6107fa565b5b9250929050565b6000806020838503121561086c5761086b6107e6565b5b600083013567ffffffffffffffff81111561088a576108896107eb565b5b610896858286016107ff565b92509250509250929050565b6000819050919050565b6108b5816108a2565b81146108c057600080fd5b50565b6000813590506108d2816108ac565b92915050565b600073ffffffffffffffffffffffffffffffffffffffff82169050919050565b6000610903826108d8565b9050919050565b610913816108f8565b811461091e57600080fd5b50565b6000813590506109308161090a565b92915050565b6000806040838503121561094d5761094c6107e6565b5b600061095b858286016108c3565b925050602061096c85828601610921565b9150509250929050565b6000819050919050565b61098981610976565b82525050565b60008115159050919050565b6109a48161098f565b82525050565b60006060820190506109bf6000830186610980565b6109cc602083018561099b565b6109d9604083018461099b565b949350505050565b6000602082840312156109f7576109f66107e6565b5b6000610a05848285016108c3565b91505092915050565b6000602082019050610a23600083018461099b565b92915050565b610a328161098f565b8114610a3d57600080fd5b50565b600081359050610a4f81610a29565b92915050565b600080600060408486031215610a6e57610a6d6107e6565b5b600084013567ffffffffffffffff811115610a8c57610a8b6107eb565b5b610a98868287016107ff565b93509350506020610aab86828701610a40565b9150509250925092565b610abe816108f8565b82525050565b6000602082019050610ad96000830184610ab5565b92915050565b600082825260208201905092915050565b7f53656e6420657363726f7720616d6f756e740000000000000000000000000000600082015250565b6000610b26601283610adf565b9150610b3182610af0565b602082019050919050565b60006020820190508181036000830152610b5581610b19565b9050919050565b82818337600083830152505050565b6000601f19601f8301169050919050565b6000610b888385610adf565b9350610b95838584610b5c565b610b9e83610b6b565b840190509392505050565b60006020820190508181036000830152610bc4818486610b7c565b90509392505050565b7f416c726561647920726567697374657265640000000000000000000000000000600082015250565b6000610c03601283610adf565b9150610c0e82610bcd565b602082019050919050565b60006020820190508181036000830152610c3281610bf6565b9050919050565b60006040820190508181036000830152610c54818587610b7c565b9050610c636020830184610980565b949350505050565b7f466c69676874206e6f7420726567697374657265640000000000000000000000600082015250565b6000610ca1601583610adf565b9150610cac82610c6b565b602082019050919050565b60006020820190508181036000830152610cd081610c94565b9050919050565b7f416c726561647920636f6d70656e736174656400000000000000000000000000600082015250565b6000610d0d601383610adf565b9150610d1882610cd7565b602082019050919050565b60006020820190508181036000830152610d3c81610d00565b9050919050565b7f466c69676874206e6f742064656c617965640000000000000000000000000000600082015250565b6000610d79601283610adf565b9150610d8482610d43565b602082019050919050565b60006020820190508181036000830152610da881610d6c565b9050919050565b7f4e487b7100000000000000000000000000000000000000000000000000000000600052601160045260246000fd5b6000610de982610976565b9150610df483610976565b9250828202610e0281610976565b91508282048414831517610e1957610e18610daf565b5b5092915050565b7f436f6e7472616374206e65656473206d6f72652066756e647300000000000000600082015250565b6000610e56601983610adf565b9150610e6182610e20565b602082019050919050565b60006020820190508181036000830152610e8581610e49565b9050919050565b600081905092915050565b50565b6000610ea7600083610e8c565b9150610eb282610e97565b600082019050919050565b6000610ec882610e9a565b9150819050919050565b7f5472616e73666572206661696c65640000000000000000000000000000000000600082015250565b6000610f08600f83610adf565b9150610f1382610ed2565b602082019050919050565b60006020820190508181036000830152610f3781610efb565b9050919050565b7f4f6e6c792061646d696e00000000000000000000000000000000000000000000600082015250565b6000610f74600a83610adf565b9150610f7f82610f3e565b602082019050919050565b60006020820190508181036000830152610fa381610f67565b9050919050565b60006040820190508181036000830152610fc5818587610b7c565b9050610fd4602083018461099b565b94935050505056fea26469706673582212204973e824f6fd79d953bfb6a1e6cd4141454f5bcaf7b52c082550a968beae42b164736f6c634300081f0033",
					"opcodes": "PUSH1 0x80 PUSH1 0x40 MSTORE CALLVALUE DUP1 ISZERO PUSH1 0xF JUMPI PUSH1 0x0 DUP1 REVERT JUMPDEST POP CALLER PUSH1 0x0 DUP1 PUSH2 0x100 EXP DUP2 SLOAD DUP2 PUSH20 0xFFFFFFFFFFFFFFFFFFFFFFFFFFFFFFFFFFFFFFFF MUL NOT AND SWAP1 DUP4 PUSH20 0xFFFFFFFFFFFFFFFFFFFFFFFFFFFFFFFFFFFFFFFF AND MUL OR SWAP1 SSTORE POP PUSH2 0x1012 DUP1 PUSH2 0x5F PUSH1 0x0 CODECOPY PUSH1 0x0 RETURN INVALID PUSH1 0x80 PUSH1 0x40 MSTORE PUSH1 0x4 CALLDATASIZE LT PUSH2 0x59 JUMPI PUSH1 0x0 CALLDATALOAD PUSH1 0xE0 SHR DUP1 PUSH4 0x3F8DD545 EQ PUSH2 0x65 JUMPI DUP1 PUSH4 0x90E0378F EQ PUSH2 0x81 JUMPI DUP1 PUSH4 0x92256C0E EQ PUSH2 0xAA JUMPI DUP1 PUSH4 0xC5ECE182 EQ PUSH2 0xE9 JUMPI DUP1 PUSH4 0xEE488213 EQ PUSH2 0x126 JUMPI DUP1 PUSH4 0xF851A440 EQ PUSH2 0x14F JUMPI PUSH2 0x60 JUMP JUMPDEST CALLDATASIZE PUSH2 0x60 JUMPI STOP JUMPDEST PUSH1 0x0 DUP1 REVERT JUMPDEST PUSH2 0x7F PUSH1 0x4 DUP1 CALLDATASIZE SUB DUP2 ADD SWAP1 PUSH2 0x7A SWAP2 SWAP1 PUSH2 0x855 JUMP JUMPDEST PUSH2 0x17A JUMP JUMPDEST STOP JUMPDEST CALLVALUE DUP1 ISZERO PUSH2 0x8D JUMPI PUSH1 0x0 DUP1 REVERT JUMPDEST POP PUSH2 0xA8 PUSH1 0x4 DUP1 CALLDATASIZE SUB DUP2 ADD SWAP1 PUSH2 0xA3 SWAP2 SWAP1 PUSH2 0x855 JUMP JUMPDEST PUSH2 0x32B JUMP JUMPDEST STOP JUMPDEST CALLVALUE DUP1 ISZERO PUSH2 0xB6 JUMPI PUSH1 0x0 DUP1 REVERT JUMPDEST POP PUSH2 0xD1 PUSH1 0x4 DUP1 CALLDATASIZE SUB DUP2 ADD SWAP1 PUSH2 0xCC SWAP2 SWAP1 PUSH2 0x936 JUMP JUMPDEST PUSH2 0x62A JUMP JUMPDEST PUSH1 0x40 MLOAD PUSH2 0xE0 SWAP4 SWAP3 SWAP2 SWAP1 PUSH2 0x9AA JUMP JUMPDEST PUSH1 0x40 MLOAD DUP1 SWAP2 SUB SWAP1 RETURN JUMPDEST CALLVALUE DUP1 ISZERO PUSH2 0xF5 JUMPI PUSH1 0x0 DUP1 REVERT JUMPDEST POP PUSH2 0x110 PUSH1 0x4 DUP1 CALLDATASIZE SUB DUP2 ADD SWAP1 PUSH2 0x10B SWAP2 SWAP1 PUSH2 0x9E1 JUMP JUMPDEST PUSH2 0x67B JUMP JUMPDEST PUSH1 0x40 MLOAD PUSH2 0x11D SWAP2 SWAP1 PUSH2 0xA0E JUMP JUMPDEST PUSH1 0x40 MLOAD DUP1 SWAP2 SUB SWAP1 RETURN JUMPDEST CALLVALUE DUP1 ISZERO PUSH2 0x132 JUMPI PUSH1 0x0 DUP1 REVERT JUMPDEST POP PUSH2 0x14D PUSH1 0x4 DUP1 CALLDATASIZE SUB DUP2 ADD SWAP1 PUSH2 0x148 SWAP2 SWAP1 PUSH2 0xA55 JUMP JUMPDEST PUSH2 0x69B JUMP JUMPDEST STOP JUMPDEST CALLVALUE DUP1 ISZERO PUSH2 0x15B JUMPI PUSH1 0x0 DUP1 REVERT JUMPDEST POP PUSH2 0x164 PUSH2 0x7C2 JUMP JUMPDEST PUSH1 0x40 MLOAD PUSH2 0x171 SWAP2 SWAP1 PUSH2 0xAC4 JUMP JUMPDEST PUSH1 0x40 MLOAD DUP1 SWAP2 SUB SWAP1 RETURN JUMPDEST PUSH1 0x0 CALLVALUE GT PUSH2 0x1BD JUMPI PUSH1 0x40 MLOAD PUSH32 0x8C379A000000000000000000000000000000000000000000000000000000000 DUP2 MSTORE PUSH1 0x4 ADD PUSH2 0x1B4 SWAP1 PUSH2 0xB3C JUMP JUMPDEST PUSH1 0x40 MLOAD DUP1 SWAP2 SUB SWAP1 REVERT JUMPDEST PUSH1 0x0 DUP3 DUP3 PUSH1 0x40 MLOAD PUSH1 0x20 ADD PUSH2 0x1D2 SWAP3 SWAP2 SWAP1 PUSH2 0xBA9 JUMP JUMPDEST PUSH1 0x40 MLOAD PUSH1 0x20 DUP2 DUP4 SUB SUB DUP2 MSTORE SWAP1 PUSH1 0x40 MSTORE DUP1 MLOAD SWAP1 PUSH1 0x20 ADD KECCAK256 SWAP1 POP PUSH1 0x0 PUSH1 0x1 PUSH1 0x0 DUP4 DUP2 MSTORE PUSH1 0x20 ADD SWAP1 DUP2 MSTORE PUSH1 0x20 ADD PUSH1 0x0 KECCAK256 PUSH1 0x0 CALLER PUSH20 0xFFFFFFFFFFFFFFFFFFFFFFFFFFFFFFFFFFFFFFFF AND PUSH20 0xFFFFFFFFFFFFFFFFFFFFFFFFFFFFFFFFFFFFFFFF AND DUP2 MSTORE PUSH1 0x20 ADD SWAP1 DUP2 MSTORE PUSH1 0x20 ADD PUSH1 0x0 KECCAK256 SWAP1 POP DUP1 PUSH1 0x1 ADD PUSH1 0x0 SWAP1 SLOAD SWAP1 PUSH2 0x100 EXP SWAP1 DIV PUSH1 0xFF AND ISZERO PUSH2 0x290 JUMPI PUSH1 0x40 MLOAD PUSH32 0x8C379A000000000000000000000000000000000000000000000000000000000 DUP2 MSTORE PUSH1 0x4 ADD PUSH2 0x287 SWAP1 PUSH2 0xC19 JUMP JUMPDEST PUSH1 0x40 MLOAD DUP1 SWAP2 SUB SWAP1 REVERT JUMPDEST CALLVALUE DUP2 PUSH1 0x0 ADD DUP2 SWAP1 SSTORE POP PUSH1 0x1 DUP2 PUSH1 0x1 ADD PUSH1 0x0 PUSH2 0x100 EXP DUP2 SLOAD DUP2 PUSH1 0xFF MUL NOT AND SWAP1 DUP4 ISZERO ISZERO MUL OR SWAP1 SSTORE POP PUSH1 0x0 DUP2 PUSH1 0x1 ADD PUSH1 0x1 PUSH2 0x100 EXP DUP2 SLOAD DUP2 PUSH1 0xFF MUL NOT AND SWAP1 DUP4 ISZERO ISZERO MUL OR SWAP1 SSTORE POP CALLER PUSH20 0xFFFFFFFFFFFFFFFFFFFFFFFFFFFFFFFFFFFFFFFF AND PUSH32 0xA59671BC0B480BD60B5B4405CBD50CADEA668F34D55E2B19DA00C04ACD8FED60 DUP6 DUP6 CALLVALUE PUSH1 0x40 MLOAD PUSH2 0x31D SWAP4 SWAP3 SWAP2 SWAP1 PUSH2 0xC39 JUMP JUMPDEST PUSH1 0x40 MLOAD DUP1 SWAP2 SUB SWAP1 LOG2 POP POP POP POP JUMP JUMPDEST PUSH1 0x0 DUP3 DUP3 PUSH1 0x40 MLOAD PUSH1 0x20 ADD PUSH2 0x340 SWAP3 SWAP2 SWAP1 PUSH2 0xBA9 JUMP JUMPDEST PUSH1 0x40 MLOAD PUSH1 0x20 DUP2 DUP4 SUB SUB DUP2 MSTORE SWAP1 PUSH1 0x40 MSTORE DUP1 MLOAD SWAP1 PUSH1 0x20 ADD KECCAK256 SWAP1 POP PUSH1 0x0 PUSH1 0x1 PUSH1 0x0 DUP4 DUP2 MSTORE PUSH1 0x20 ADD SWAP1 DUP2 MSTORE PUSH1 0x20 ADD PUSH1 0x0 KECCAK256 PUSH1 0x0 CALLER PUSH20 0xFFFFFFFFFFFFFFFFFFFFFFFFFFFFFFFFFFFFFFFF AND PUSH20 0xFFFFFFFFFFFFFFFFFFFFFFFFFFFFFFFFFFFFFFFF AND DUP2 MSTORE PUSH1 0x20 ADD SWAP1 DUP2 MSTORE PUSH1 0x20 ADD PUSH1 0x0 KECCAK256 SWAP1 POP DUP1 PUSH1 0x1 ADD PUSH1 0x0 SWAP1 SLOAD SWAP1 PUSH2 0x100 EXP SWAP1 DIV PUSH1 0xFF AND PUSH2 0x3FD JUMPI PUSH1 0x40 MLOAD PUSH32 0x8C379A000000000000000000000000000000000000000000000000000000000 DUP2 MSTORE PUSH1 0x4 ADD PUSH2 0x3F4 SWAP1 PUSH2 0xCB7 JUMP JUMPDEST PUSH1 0x40 MLOAD DUP1 SWAP2 SUB SWAP1 REVERT JUMPDEST DUP1 PUSH1 0x1 ADD PUSH1 0x1 SWAP1 SLOAD SWAP1 PUSH2 0x100 EXP SWAP1 DIV PUSH1 0xFF AND ISZERO PUSH2 0x44F JUMPI PUSH1 0x40 MLOAD PUSH32 0x8C379A000000000000000000000000000000000000000000000000000000000 DUP2 MSTORE PUSH1 0x4 ADD PUSH2 0x446 SWAP1 PUSH2 0xD23 JUMP JUMPDEST PUSH1 0x40 MLOAD DUP1 SWAP2 SUB SWAP1 REVERT JUMPDEST PUSH1 0x2 PUSH1 0x0 DUP4 DUP2 MSTORE PUSH1 0x20 ADD SWAP1 DUP2 MSTORE PUSH1 0x20 ADD PUSH1 0x0 KECCAK256 PUSH1 0x0 SWAP1 SLOAD SWAP1 PUSH2 0x100 EXP SWAP1 DIV PUSH1 0xFF AND PUSH2 0x4AF JUMPI PUSH1 0x40 MLOAD PUSH32 0x8C379A000000000000000000000000000000000000000000000000000000000 DUP2 MSTORE PUSH1 0x4 ADD PUSH2 0x4A6 SWAP1 PUSH2 0xD8F JUMP JUMPDEST PUSH1 0x40 MLOAD DUP1 SWAP2 SUB SWAP1 REVERT JUMPDEST PUSH1 0x0 PUSH1 0x2 DUP3 PUSH1 0x0 ADD SLOAD PUSH2 0x4C2 SWAP2 SWAP1 PUSH2 0xDDE JUMP JUMPDEST SWAP1 POP DUP1 SELFBALANCE LT ISZERO PUSH2 0x507 JUMPI PUSH1 0x40 MLOAD PUSH32 0x8C379A000000000000000000000000000000000000000000000000000000000 DUP2 MSTORE PUSH1 0x4 ADD PUSH2 0x4FE SWAP1 PUSH2 0xE6C JUMP JUMPDEST PUSH1 0x40 MLOAD DUP1 SWAP2 SUB SWAP1 REVERT JUMPDEST PUSH1 0x1 DUP3 PUSH1 0x1 ADD PUSH1 0x1 PUSH2 0x100 EXP DUP2 SLOAD DUP2 PUSH1 0xFF MUL NOT AND SWAP1 DUP4 ISZERO ISZERO MUL OR SWAP1 SSTORE POP PUSH1 0x0 CALLER PUSH20 0xFFFFFFFFFFFFFFFFFFFFFFFFFFFFFFFFFFFFFFFF AND DUP3 PUSH1 0x40 MLOAD PUSH2 0x54A SWAP1 PUSH2 0xEBD JUMP JUMPDEST PUSH1 0x0 PUSH1 0x40 MLOAD DUP1 DUP4 SUB DUP2 DUP6 DUP8 GAS CALL SWAP3 POP POP POP RETURNDATASIZE DUP1 PUSH1 0x0 DUP2 EQ PUSH2 0x587 JUMPI PUSH1 0x40 MLOAD SWAP2 POP PUSH1 0x1F NOT PUSH1 0x3F RETURNDATASIZE ADD AND DUP3 ADD PUSH1 0x40 MSTORE RETURNDATASIZE DUP3 MSTORE RETURNDATASIZE PUSH1 0x0 PUSH1 0x20 DUP5 ADD RETURNDATACOPY PUSH2 0x58C JUMP JUMPDEST PUSH1 0x60 SWAP2 POP JUMPDEST POP POP SWAP1 POP DUP1 PUSH2 0x5D0 JUMPI PUSH1 0x40 MLOAD PUSH32 0x8C379A000000000000000000000000000000000000000000000000000000000 DUP2 MSTORE PUSH1 0x4 ADD PUSH2 0x5C7 SWAP1 PUSH2 0xF1E JUMP JUMPDEST PUSH1 0x40 MLOAD DUP1 SWAP2 SUB SWAP1 REVERT JUMPDEST CALLER PUSH20 0xFFFFFFFFFFFFFFFFFFFFFFFFFFFFFFFFFFFFFFFF AND PUSH32 0xDED485C2513E9AA2C43424B680757F4E28B95773577B2C78F5083C50C528DD8C DUP8 DUP8 DUP6 PUSH1 0x40 MLOAD PUSH2 0x61A SWAP4 SWAP3 SWAP2 SWAP1 PUSH2 0xC39 JUMP JUMPDEST PUSH1 0x40 MLOAD DUP1 SWAP2 SUB SWAP1 LOG2 POP POP POP POP POP POP JUMP JUMPDEST PUSH1 0x1 PUSH1 0x20 MSTORE DUP2 PUSH1 0x0 MSTORE PUSH1 0x40 PUSH1 0x0 KECCAK256 PUSH1 0x20 MSTORE DUP1 PUSH1 0x0 MSTORE PUSH1 0x40 PUSH1 0x0 KECCAK256 PUSH1 0x0 SWAP2 POP SWAP2 POP POP DUP1 PUSH1 0x0 ADD SLOAD SWAP1 DUP1 PUSH1 0x1 ADD PUSH1 0x0 SWAP1 SLOAD SWAP1 PUSH2 0x100 EXP SWAP1 DIV PUSH1 0xFF AND SWAP1 DUP1 PUSH1 0x1 ADD PUSH1 0x1 SWAP1 SLOAD SWAP1 PUSH2 0x100 EXP SWAP1 DIV PUSH1 0xFF AND SWAP1 POP DUP4 JUMP JUMPDEST PUSH1 0x2 PUSH1 0x20 MSTORE DUP1 PUSH1 0x0 MSTORE PUSH1 0x40 PUSH1 0x0 KECCAK256 PUSH1 0x0 SWAP2 POP SLOAD SWAP1 PUSH2 0x100 EXP SWAP1 DIV PUSH1 0xFF AND DUP2 JUMP JUMPDEST PUSH1 0x0 DUP1 SLOAD SWAP1 PUSH2 0x100 EXP SWAP1 DIV PUSH20 0xFFFFFFFFFFFFFFFFFFFFFFFFFFFFFFFFFFFFFFFF AND PUSH20 0xFFFFFFFFFFFFFFFFFFFFFFFFFFFFFFFFFFFFFFFF AND CALLER PUSH20 0xFFFFFFFFFFFFFFFFFFFFFFFFFFFFFFFFFFFFFFFF AND EQ PUSH2 0x729 JUMPI PUSH1 0x40 MLOAD PUSH32 0x8C379A000000000000000000000000000000000000000000000000000000000 DUP2 MSTORE PUSH1 0x4 ADD PUSH2 0x720 SWAP1 PUSH2 0xF8A JUMP JUMPDEST PUSH1 0x40 MLOAD DUP1 SWAP2 SUB SWAP1 REVERT JUMPDEST PUSH1 0x0 DUP4 DUP4 PUSH1 0x40 MLOAD PUSH1 0x20 ADD PUSH2 0x73E SWAP3 SWAP2 SWAP1 PUSH2 0xBA9 JUMP JUMPDEST PUSH1 0x40 MLOAD PUSH1 0x20 DUP2 DUP4 SUB SUB DUP2 MSTORE SWAP1 PUSH1 0x40 MSTORE DUP1 MLOAD SWAP1 PUSH1 0x20 ADD KECCAK256 SWAP1 POP DUP2 PUSH1 0x2 PUSH1 0x0 DUP4 DUP2 MSTORE PUSH1 0x20 ADD SWAP1 DUP2 MSTORE PUSH1 0x20 ADD PUSH1 0x0 KECCAK256 PUSH1 0x0 PUSH2 0x100 EXP DUP2 SLOAD DUP2 PUSH1 0xFF MUL NOT AND SWAP1 DUP4 ISZERO ISZERO MUL OR SWAP1 SSTORE POP PUSH32 0xF473421C357E27F83E2A01E6AEA4554E408532C925812801E901592FF7A05C18 DUP5 DUP5 DUP5 PUSH1 0x40 MLOAD PUSH2 0x7B4 SWAP4 SWAP3 SWAP2 SWAP1 PUSH2 0xFAA JUMP JUMPDEST PUSH1 0x40 MLOAD DUP1 SWAP2 SUB SWAP1 LOG1 POP POP POP POP JUMP JUMPDEST PUSH1 0x0 DUP1 SLOAD SWAP1 PUSH2 0x100 EXP SWAP1 DIV PUSH20 0xFFFFFFFFFFFFFFFFFFFFFFFFFFFFFFFFFFFFFFFF AND DUP2 JUMP JUMPDEST PUSH1 0x0 DUP1 REVERT JUMPDEST PUSH1 0x0 DUP1 REVERT JUMPDEST PUSH1 0x0 DUP1 REVERT JUMPDEST PUSH1 0x0 DUP1 REVERT JUMPDEST PUSH1 0x0 DUP1 REVERT JUMPDEST PUSH1 0x0 DUP1 DUP4 PUSH1 0x1F DUP5 ADD SLT PUSH2 0x815 JUMPI PUSH2 0x814 PUSH2 0x7F0 JUMP JUMPDEST JUMPDEST DUP3 CALLDATALOAD SWAP1 POP PUSH8 0xFFFFFFFFFFFFFFFF DUP2 GT ISZERO PUSH2 0x832 JUMPI PUSH2 0x831 PUSH2 0x7F5 JUMP JUMPDEST JUMPDEST PUSH1 0x20 DUP4 ADD SWAP2 POP DUP4 PUSH1 0x1 DUP3 MUL DUP4 ADD GT ISZERO PUSH2 0x84E JUMPI PUSH2 0x84D PUSH2 0x7FA JUMP JUMPDEST JUMPDEST SWAP3 POP SWAP3 SWAP1 POP JUMP JUMPDEST PUSH1 0x0 DUP1 PUSH1 0x20 DUP4 DUP6 SUB SLT ISZERO PUSH2 0x86C JUMPI PUSH2 0x86B PUSH2 0x7E6 JUMP JUMPDEST JUMPDEST PUSH1 0x0 DUP4 ADD CALLDATALOAD PUSH8 0xFFFFFFFFFFFFFFFF DUP2 GT ISZERO PUSH2 0x88A JUMPI PUSH2 0x889 PUSH2 0x7EB JUMP JUMPDEST JUMPDEST PUSH2 0x896 DUP6 DUP3 DUP7 ADD PUSH2 0x7FF JUMP JUMPDEST SWAP3 POP SWAP3 POP POP SWAP3 POP SWAP3 SWAP1 POP JUMP JUMPDEST PUSH1 0x0 DUP2 SWAP1 POP SWAP2 SWAP1 POP JUMP JUMPDEST PUSH2 0x8B5 DUP2 PUSH2 0x8A2 JUMP JUMPDEST DUP2 EQ PUSH2 0x8C0 JUMPI PUSH1 0x0 DUP1 REVERT JUMPDEST POP JUMP JUMPDEST PUSH1 0x0 DUP2 CALLDATALOAD SWAP1 POP PUSH2 0x8D2 DUP2 PUSH2 0x8AC JUMP JUMPDEST SWAP3 SWAP2 POP POP JUMP JUMPDEST PUSH1 0x0 PUSH20 0xFFFFFFFFFFFFFFFFFFFFFFFFFFFFFFFFFFFFFFFF DUP3 AND SWAP1 POP SWAP2 SWAP1 POP JUMP JUMPDEST PUSH1 0x0 PUSH2 0x903 DUP3 PUSH2 0x8D8 JUMP JUMPDEST SWAP1 POP SWAP2 SWAP1 POP JUMP JUMPDEST PUSH2 0x913 DUP2 PUSH2 0x8F8 JUMP JUMPDEST DUP2 EQ PUSH2 0x91E JUMPI PUSH1 0x0 DUP1 REVERT JUMPDEST POP JUMP JUMPDEST PUSH1 0x0 DUP2 CALLDATALOAD SWAP1 POP PUSH2 0x930 DUP2 PUSH2 0x90A JUMP JUMPDEST SWAP3 SWAP2 POP POP JUMP JUMPDEST PUSH1 0x0 DUP1 PUSH1 0x40 DUP4 DUP6 SUB SLT ISZERO PUSH2 0x94D JUMPI PUSH2 0x94C PUSH2 0x7E6 JUMP JUMPDEST JUMPDEST PUSH1 0x0 PUSH2 0x95B DUP6 DUP3 DUP7 ADD PUSH2 0x8C3 JUMP JUMPDEST SWAP3 POP POP PUSH1 0x20 PUSH2 0x96C DUP6 DUP3 DUP7 ADD PUSH2 0x921 JUMP JUMPDEST SWAP2 POP POP SWAP3 POP SWAP3 SWAP1 POP JUMP JUMPDEST PUSH1 0x0 DUP2 SWAP1 POP SWAP2 SWAP1 POP JUMP JUMPDEST PUSH2 0x989 DUP2 PUSH2 0x976 JUMP JUMPDEST DUP3 MSTORE POP POP JUMP JUMPDEST PUSH1 0x0 DUP2 ISZERO ISZERO SWAP1 POP SWAP2 SWAP1 POP JUMP JUMPDEST PUSH2 0x9A4 DUP2 PUSH2 0x98F JUMP JUMPDEST DUP3 MSTORE POP POP JUMP JUMPDEST PUSH1 0x0 PUSH1 0x60 DUP3 ADD SWAP1 POP PUSH2 0x9BF PUSH1 0x0 DUP4 ADD DUP7 PUSH2 0x980 JUMP JUMPDEST PUSH2 0x9CC PUSH1 0x20 DUP4 ADD DUP6 PUSH2 0x99B JUMP JUMPDEST PUSH2 0x9D9 PUSH1 0x40 DUP4 ADD DUP5 PUSH2 0x99B JUMP JUMPDEST SWAP5 SWAP4 POP POP POP POP JUMP JUMPDEST PUSH1 0x0 PUSH1 0x20 DUP3 DUP5 SUB SLT ISZERO PUSH2 0x9F7 JUMPI PUSH2 0x9F6 PUSH2 0x7E6 JUMP JUMPDEST JUMPDEST PUSH1 0x0 PUSH2 0xA05 DUP5 DUP3 DUP6 ADD PUSH2 0x8C3 JUMP JUMPDEST SWAP2 POP POP SWAP3 SWAP2 POP POP JUMP JUMPDEST PUSH1 0x0 PUSH1 0x20 DUP3 ADD SWAP1 POP PUSH2 0xA23 PUSH1 0x0 DUP4 ADD DUP5 PUSH2 0x99B JUMP JUMPDEST SWAP3 SWAP2 POP POP JUMP JUMPDEST PUSH2 0xA32 DUP2 PUSH2 0x98F JUMP JUMPDEST DUP2 EQ PUSH2 0xA3D JUMPI PUSH1 0x0 DUP1 REVERT JUMPDEST POP JUMP JUMPDEST PUSH1 0x0 DUP2 CALLDATALOAD SWAP1 POP PUSH2 0xA4F DUP2 PUSH2 0xA29 JUMP JUMPDEST SWAP3 SWAP2 POP POP JUMP JUMPDEST PUSH1 0x0 DUP1 PUSH1 0x0 PUSH1 0x40 DUP5 DUP7 SUB SLT ISZERO PUSH2 0xA6E JUMPI PUSH2 0xA6D PUSH2 0x7E6 JUMP JUMPDEST JUMPDEST PUSH1 0x0 DUP5 ADD CALLDATALOAD PUSH8 0xFFFFFFFFFFFFFFFF DUP2 GT ISZERO PUSH2 0xA8C JUMPI PUSH2 0xA8B PUSH2 0x7EB JUMP JUMPDEST JUMPDEST PUSH2 0xA98 DUP7 DUP3 DUP8 ADD PUSH2 0x7FF JUMP JUMPDEST SWAP4 POP SWAP4 POP POP PUSH1 0x20 PUSH2 0xAAB DUP7 DUP3 DUP8 ADD PUSH2 0xA40 JUMP JUMPDEST SWAP2 POP POP SWAP3 POP SWAP3 POP SWAP3 JUMP JUMPDEST PUSH2 0xABE DUP2 PUSH2 0x8F8 JUMP JUMPDEST DUP3 MSTORE POP POP JUMP JUMPDEST PUSH1 0x0 PUSH1 0x20 DUP3 ADD SWAP1 POP PUSH2 0xAD9 PUSH1 0x0 DUP4 ADD DUP5 PUSH2 0xAB5 JUMP JUMPDEST SWAP3 SWAP2 POP POP JUMP JUMPDEST PUSH1 0x0 DUP3 DUP3 MSTORE PUSH1 0x20 DUP3 ADD SWAP1 POP SWAP3 SWAP2 POP POP JUMP JUMPDEST PUSH32 0x53656E6420657363726F7720616D6F756E740000000000000000000000000000 PUSH1 0x0 DUP3 ADD MSTORE POP JUMP JUMPDEST PUSH1 0x0 PUSH2 0xB26 PUSH1 0x12 DUP4 PUSH2 0xADF JUMP JUMPDEST SWAP2 POP PUSH2 0xB31 DUP3 PUSH2 0xAF0 JUMP JUMPDEST PUSH1 0x20 DUP3 ADD SWAP1 POP SWAP2 SWAP1 POP JUMP JUMPDEST PUSH1 0x0 PUSH1 0x20 DUP3 ADD SWAP1 POP DUP2 DUP2 SUB PUSH1 0x0 DUP4 ADD MSTORE PUSH2 0xB55 DUP2 PUSH2 0xB19 JUMP JUMPDEST SWAP1 POP SWAP2 SWAP1 POP JUMP JUMPDEST DUP3 DUP2 DUP4 CALLDATACOPY PUSH1 0x0 DUP4 DUP4 ADD MSTORE POP POP POP JUMP JUMPDEST PUSH1 0x0 PUSH1 0x1F NOT PUSH1 0x1F DUP4 ADD AND SWAP1 POP SWAP2 SWAP1 POP JUMP JUMPDEST PUSH1 0x0 PUSH2 0xB88 DUP4 DUP6 PUSH2 0xADF JUMP JUMPDEST SWAP4 POP PUSH2 0xB95 DUP4 DUP6 DUP5 PUSH2 0xB5C JUMP JUMPDEST PUSH2 0xB9E DUP4 PUSH2 0xB6B JUMP JUMPDEST DUP5 ADD SWAP1 POP SWAP4 SWAP3 POP POP POP JUMP JUMPDEST PUSH1 0x0 PUSH1 0x20 DUP3 ADD SWAP1 POP DUP2 DUP2 SUB PUSH1 0x0 DUP4 ADD MSTORE PUSH2 0xBC4 DUP2 DUP5 DUP7 PUSH2 0xB7C JUMP JUMPDEST SWAP1 POP SWAP4 SWAP3 POP POP POP JUMP JUMPDEST PUSH32 0x416C726561647920726567697374657265640000000000000000000000000000 PUSH1 0x0 DUP3 ADD MSTORE POP JUMP JUMPDEST PUSH1 0x0 PUSH2 0xC03 PUSH1 0x12 DUP4 PUSH2 0xADF JUMP JUMPDEST SWAP2 POP PUSH2 0xC0E DUP3 PUSH2 0xBCD JUMP JUMPDEST PUSH1 0x20 DUP3 ADD SWAP1 POP SWAP2 SWAP1 POP JUMP JUMPDEST PUSH1 0x0 PUSH1 0x20 DUP3 ADD SWAP1 POP DUP2 DUP2 SUB PUSH1 0x0 DUP4 ADD MSTORE PUSH2 0xC32 DUP2 PUSH2 0xBF6 JUMP JUMPDEST SWAP1 POP SWAP2 SWAP1 POP JUMP JUMPDEST PUSH1 0x0 PUSH1 0x40 DUP3 ADD SWAP1 POP DUP2 DUP2 SUB PUSH1 0x0 DUP4 ADD MSTORE PUSH2 0xC54 DUP2 DUP6 DUP8 PUSH2 0xB7C JUMP JUMPDEST SWAP1 POP PUSH2 0xC63 PUSH1 0x20 DUP4 ADD DUP5 PUSH2 0x980 JUMP JUMPDEST SWAP5 SWAP4 POP POP POP POP JUMP JUMPDEST PUSH32 0x466C69676874206E6F7420726567697374657265640000000000000000000000 PUSH1 0x0 DUP3 ADD MSTORE POP JUMP JUMPDEST PUSH1 0x0 PUSH2 0xCA1 PUSH1 0x15 DUP4 PUSH2 0xADF JUMP JUMPDEST SWAP2 POP PUSH2 0xCAC DUP3 PUSH2 0xC6B JUMP JUMPDEST PUSH1 0x20 DUP3 ADD SWAP1 POP SWAP2 SWAP1 POP JUMP JUMPDEST PUSH1 0x0 PUSH1 0x20 DUP3 ADD SWAP1 POP DUP2 DUP2 SUB PUSH1 0x0 DUP4 ADD MSTORE PUSH2 0xCD0 DUP2 PUSH2 0xC94 JUMP JUMPDEST SWAP1 POP SWAP2 SWAP1 POP JUMP JUMPDEST PUSH32 0x416C726561647920636F6D70656E736174656400000000000000000000000000 PUSH1 0x0 DUP3 ADD MSTORE POP JUMP JUMPDEST PUSH1 0x0 PUSH2 0xD0D PUSH1 0x13 DUP4 PUSH2 0xADF JUMP JUMPDEST SWAP2 POP PUSH2 0xD18 DUP3 PUSH2 0xCD7 JUMP JUMPDEST PUSH1 0x20 DUP3 ADD SWAP1 POP SWAP2 SWAP1 POP JUMP JUMPDEST PUSH1 0x0 PUSH1 0x20 DUP3 ADD SWAP1 POP DUP2 DUP2 SUB PUSH1 0x0 DUP4 ADD MSTORE PUSH2 0xD3C DUP2 PUSH2 0xD00 JUMP JUMPDEST SWAP1 POP SWAP2 SWAP1 POP JUMP JUMPDEST PUSH32 0x466C69676874206E6F742064656C617965640000000000000000000000000000 PUSH1 0x0 DUP3 ADD MSTORE POP JUMP JUMPDEST PUSH1 0x0 PUSH2 0xD79 PUSH1 0x12 DUP4 PUSH2 0xADF JUMP JUMPDEST SWAP2 POP PUSH2 0xD84 DUP3 PUSH2 0xD43 JUMP JUMPDEST PUSH1 0x20 DUP3 ADD SWAP1 POP SWAP2 SWAP1 POP JUMP JUMPDEST PUSH1 0x0 PUSH1 0x20 DUP3 ADD SWAP1 POP DUP2 DUP2 SUB PUSH1 0x0 DUP4 ADD MSTORE PUSH2 0xDA8 DUP2 PUSH2 0xD6C JUMP JUMPDEST SWAP1 POP SWAP2 SWAP1 POP JUMP JUMPDEST PUSH32 0x4E487B7100000000000000000000000000000000000000000000000000000000 PUSH1 0x0 MSTORE PUSH1 0x11 PUSH1 0x4 MSTORE PUSH1 0x24 PUSH1 0x0 REVERT JUMPDEST PUSH1 0x0 PUSH2 0xDE9 DUP3 PUSH2 0x976 JUMP JUMPDEST SWAP2 POP PUSH2 0xDF4 DUP4 PUSH2 0x976 JUMP JUMPDEST SWAP3 POP DUP3 DUP3 MUL PUSH2 0xE02 DUP2 PUSH2 0x976 JUMP JUMPDEST SWAP2 POP DUP3 DUP3 DIV DUP5 EQ DUP4 ISZERO OR PUSH2 0xE19 JUMPI PUSH2 0xE18 PUSH2 0xDAF JUMP JUMPDEST JUMPDEST POP SWAP3 SWAP2 POP POP JUMP JUMPDEST PUSH32 0x436F6E7472616374206E65656473206D6F72652066756E647300000000000000 PUSH1 0x0 DUP3 ADD MSTORE POP JUMP JUMPDEST PUSH1 0x0 PUSH2 0xE56 PUSH1 0x19 DUP4 PUSH2 0xADF JUMP JUMPDEST SWAP2 POP PUSH2 0xE61 DUP3 PUSH2 0xE20 JUMP JUMPDEST PUSH1 0x20 DUP3 ADD SWAP1 POP SWAP2 SWAP1 POP JUMP JUMPDEST PUSH1 0x0 PUSH1 0x20 DUP3 ADD SWAP1 POP DUP2 DUP2 SUB PUSH1 0x0 DUP4 ADD MSTORE PUSH2 0xE85 DUP2 PUSH2 0xE49 JUMP JUMPDEST SWAP1 POP SWAP2 SWAP1 POP JUMP JUMPDEST PUSH1 0x0 DUP2 SWAP1 POP SWAP3 SWAP2 POP POP JUMP JUMPDEST POP JUMP JUMPDEST PUSH1 0x0 PUSH2 0xEA7 PUSH1 0x0 DUP4 PUSH2 0xE8C JUMP JUMPDEST SWAP2 POP PUSH2 0xEB2 DUP3 PUSH2 0xE97 JUMP JUMPDEST PUSH1 0x0 DUP3 ADD SWAP1 POP SWAP2 SWAP1 POP JUMP JUMPDEST PUSH1 0x0 PUSH2 0xEC8 DUP3 PUSH2 0xE9A JUMP JUMPDEST SWAP2 POP DUP2 SWAP1 POP SWAP2 SWAP1 POP JUMP JUMPDEST PUSH32 0x5472616E73666572206661696C65640000000000000000000000000000000000 PUSH1 0x0 DUP3 ADD MSTORE POP JUMP JUMPDEST PUSH1 0x0 PUSH2 0xF08 PUSH1 0xF DUP4 PUSH2 0xADF JUMP JUMPDEST SWAP2 POP PUSH2 0xF13 DUP3 PUSH2 0xED2 JUMP JUMPDEST PUSH1 0x20 DUP3 ADD SWAP1 POP SWAP2 SWAP1 POP JUMP JUMPDEST PUSH1 0x0 PUSH1 0x20 DUP3 ADD SWAP1 POP DUP2 DUP2 SUB PUSH1 0x0 DUP4 ADD MSTORE PUSH2 0xF37 DUP2 PUSH2 0xEFB JUMP JUMPDEST SWAP1 POP SWAP2 SWAP1 POP JUMP JUMPDEST PUSH32 0x4F6E6C792061646D696E00000000000000000000000000000000000000000000 PUSH1 0x0 DUP3 ADD MSTORE POP JUMP JUMPDEST PUSH1 0x0 PUSH2 0xF74 PUSH1 0xA DUP4 PUSH2 0xADF JUMP JUMPDEST SWAP2 POP PUSH2 0xF7F DUP3 PUSH2 0xF3E JUMP JUMPDEST PUSH1 0x20 DUP3 ADD SWAP1 POP SWAP2 SWAP1 POP JUMP JUMPDEST PUSH1 0x0 PUSH1 0x20 DUP3 ADD SWAP1 POP DUP2 DUP2 SUB PUSH1 0x0 DUP4 ADD MSTORE PUSH2 0xFA3 DUP2 PUSH2 0xF67 JUMP JUMPDEST SWAP1 POP SWAP2 SWAP1 POP JUMP JUMPDEST PUSH1 0x0 PUSH1 0x40 DUP3 ADD SWAP1 POP DUP2 DUP2 SUB PUSH1 0x0 DUP4 ADD MSTORE PUSH2 0xFC5 DUP2 DUP6 DUP8 PUSH2 0xB7C JUMP JUMPDEST SWAP1 POP PUSH2 0xFD4 PUSH1 0x20 DUP4 ADD DUP5 PUSH2 0x99B JUMP JUMPDEST SWAP5 SWAP4 POP POP POP POP JUMP INVALID LOG2 PUSH5 0x6970667358 0x22 SLT KECCAK256 BLOBHASH PUSH20 0xE824F6FD79D953BFB6A1E6CD4141454F5BCAF7B5 0x2C ADDMOD 0x25 POP 0xA9 PUSH9 0xBEAE42B164736F6C63 NUMBER STOP ADDMOD 0x1F STOP CALLER "
				},
				"gasEstimates": {
					"creation": {
						"codeDepositCost": "822800",
						"executionCost": "25123",
						"totalCost": "847923"
					},
					"external": {
						"admin()": "2599",
						"claims(bytes32,address)": "infinite",
						"flightDelayed(bytes32)": "2840",
						"registerFlight(string)": "infinite",
						"requestCompensation(string)": "infinite",
						"setFlightDelayed(string,bool)": "infinite"
					}
				},
				"methodIdentifiers": {
					"admin()": "f851a440",
					"claims(bytes32,address)": "92256c0e",
					"flightDelayed(bytes32)": "c5ece182",
					"registerFlight(string)": "3f8dd545",
					"requestCompensation(string)": "90e0378f",
					"setFlightDelayed(string,bool)": "ee488213"
				}
			},
			"storageLayout": {
				"storage": [
					{
						"astId": 4,
						"contract": "Zeph.sol:SimpleFlightCompensation",
						"label": "admin",
						"offset": 0,
						"slot": "0",
						"type": "t_address"
					},
					{
						"astId": 18,
						"contract": "Zeph.sol:SimpleFlightCompensation",
						"label": "claims",
						"offset": 0,
						"slot": "1",
						"type": "t_mapping(t_bytes32,t_mapping(t_address,t_struct(ClaimRecord)11_storage))"
					},
					{
						"astId": 22,
						"contract": "Zeph.sol:SimpleFlightCompensation",
						"label": "flightDelayed",
						"offset": 0,
						"slot": "2",
						"type": "t_mapping(t_bytes32,t_bool)"
					}
				],
				"types": {
					"t_address": {
						"encoding": "inplace",
						"label": "address",
						"numberOfBytes": "20"
					},
					"t_bool": {
						"encoding": "inplace",
						"label": "bool",
						"numberOfBytes": "1"
					},
					"t_bytes32": {
						"encoding": "inplace",
						"label": "bytes32",
						"numberOfBytes": "32"
					},
					"t_mapping(t_address,t_struct(ClaimRecord)11_storage)": {
						"encoding": "mapping",
						"key": "t_address",
						"label": "mapping(address => struct SimpleFlightCompensation.ClaimRecord)",
						"numberOfBytes": "32",
						"value": "t_struct(ClaimRecord)11_storage"
					},
					"t_mapping(t_bytes32,t_bool)": {
						"encoding": "mapping",
						"key": "t_bytes32",
						"label": "mapping(bytes32 => bool)",
						"numberOfBytes": "32",
						"value": "t_bool"
					},
					"t_mapping(t_bytes32,t_mapping(t_address,t_struct(ClaimRecord)11_storage))": {
						"encoding": "mapping",
						"key": "t_bytes32",
						"label": "mapping(bytes32 => mapping(address => struct SimpleFlightCompensation.ClaimRecord))",
						"numberOfBytes": "32",
						"value": "t_mapping(t_address,t_struct(ClaimRecord)11_storage)"
					},
					"t_struct(ClaimRecord)11_storage": {
						"encoding": "inplace",
						"label": "struct SimpleFlightCompensation.ClaimRecord",
						"members": [
							{
								"astId": 6,
								"contract": "Zeph.sol:SimpleFlightCompensation",
								"label": "escrowAmount",
								"offset": 0,
								"slot": "0",
								"type": "t_uint256"
							},
							{
								"astId": 8,
								"contract": "Zeph.sol:SimpleFlightCompensation",
								"label": "registered",
								"offset": 0,
								"slot": "1",
								"type": "t_bool"
							},
							{
								"astId": 10,
								"contract": "Zeph.sol:SimpleFlightCompensation",
								"label": "compensated",
								"offset": 1,
								"slot": "1",
								"type": "t_bool"
							}
						],
						"numberOfBytes": "64"
					},
					"t_uint256": {
						"encoding": "inplace",
						"label": "uint256",
						"numberOfBytes": "32"
					}
				}
			},
			"userdoc": {
				"kind": "user",
				"methods": {
					"registerFlight(string)": {
						"notice": "Traveler registers a flight (demo uses escrow to fund contract logic)"
					},
					"requestCompensation(string)": {
						"notice": "Traveler requests compensation if the flight is marked delayed"
					},
					"setFlightDelayed(string,bool)": {
						"notice": "Admin updates flight status (simulates external flight data / verification)"
					}
				},
				"notice": "Minimal prototype: users register a flight, an admin marks it delayed, and eligible users request compensation.",
				"version": 1
			}
		}
	}
}